{
  "contractName": "KyberNetworkProxy",
  "abi": [
    {
      "constant": false,
      "inputs": [
        {
          "name": "alerter",
          "type": "address"
        }
      ],
      "name": "removeAlerter",
      "outputs": [],
      "payable": false,
      "stateMutability": "nonpayable",
      "type": "function"
    },
    {
      "constant": true,
      "inputs": [],
      "name": "pendingAdmin",
      "outputs": [
        {
          "name": "",
          "type": "address"
        }
      ],
      "payable": false,
      "stateMutability": "view",
      "type": "function"
    },
    {
      "constant": true,
      "inputs": [],
      "name": "getOperators",
      "outputs": [
        {
          "name": "",
          "type": "address[]"
        }
      ],
      "payable": false,
      "stateMutability": "view",
      "type": "function"
    },
    {
      "constant": false,
      "inputs": [
        {
          "name": "token",
          "type": "address"
        },
        {
          "name": "amount",
          "type": "uint256"
        },
        {
          "name": "sendTo",
          "type": "address"
        }
      ],
      "name": "withdrawToken",
      "outputs": [],
      "payable": false,
      "stateMutability": "nonpayable",
      "type": "function"
    },
    {
      "constant": false,
      "inputs": [
        {
          "name": "newAlerter",
          "type": "address"
        }
      ],
      "name": "addAlerter",
      "outputs": [],
      "payable": false,
      "stateMutability": "nonpayable",
      "type": "function"
    },
    {
      "constant": true,
      "inputs": [],
      "name": "kyberNetworkContract",
      "outputs": [
        {
          "name": "",
          "type": "address"
        }
      ],
      "payable": false,
      "stateMutability": "view",
      "type": "function"
    },
    {
      "constant": false,
      "inputs": [
        {
          "name": "newAdmin",
          "type": "address"
        }
      ],
      "name": "transferAdmin",
      "outputs": [],
      "payable": false,
      "stateMutability": "nonpayable",
      "type": "function"
    },
    {
      "constant": false,
      "inputs": [],
      "name": "claimAdmin",
      "outputs": [],
      "payable": false,
      "stateMutability": "nonpayable",
      "type": "function"
    },
    {
      "constant": false,
      "inputs": [
        {
          "name": "newAdmin",
          "type": "address"
        }
      ],
      "name": "transferAdminQuickly",
      "outputs": [],
      "payable": false,
      "stateMutability": "nonpayable",
      "type": "function"
    },
    {
      "constant": true,
      "inputs": [],
      "name": "getAlerters",
      "outputs": [
        {
          "name": "",
          "type": "address[]"
        }
      ],
      "payable": false,
      "stateMutability": "view",
      "type": "function"
    },
    {
      "constant": false,
      "inputs": [
        {
          "name": "newOperator",
          "type": "address"
        }
      ],
      "name": "addOperator",
      "outputs": [],
      "payable": false,
      "stateMutability": "nonpayable",
      "type": "function"
    },
    {
      "constant": false,
      "inputs": [
        {
          "name": "operator",
          "type": "address"
        }
      ],
      "name": "removeOperator",
      "outputs": [],
      "payable": false,
      "stateMutability": "nonpayable",
      "type": "function"
    },
    {
      "constant": false,
      "inputs": [
        {
          "name": "amount",
          "type": "uint256"
        },
        {
          "name": "sendTo",
          "type": "address"
        }
      ],
      "name": "withdrawEther",
      "outputs": [],
      "payable": false,
      "stateMutability": "nonpayable",
      "type": "function"
    },
    {
      "constant": true,
      "inputs": [
        {
          "name": "token",
          "type": "address"
        },
        {
          "name": "user",
          "type": "address"
        }
      ],
      "name": "getBalance",
      "outputs": [
        {
          "name": "",
          "type": "uint256"
        }
      ],
      "payable": false,
      "stateMutability": "view",
      "type": "function"
    },
    {
      "constant": true,
      "inputs": [],
      "name": "admin",
      "outputs": [
        {
          "name": "",
          "type": "address"
        }
      ],
      "payable": false,
      "stateMutability": "view",
      "type": "function"
    },
    {
      "inputs": [
        {
          "name": "_admin",
          "type": "address"
        }
      ],
      "payable": false,
      "stateMutability": "nonpayable",
      "type": "constructor"
    },
    {
      "anonymous": false,
      "inputs": [
        {
          "indexed": true,
          "name": "trader",
          "type": "address"
        },
        {
          "indexed": false,
          "name": "src",
          "type": "address"
        },
        {
          "indexed": false,
          "name": "dest",
          "type": "address"
        },
        {
          "indexed": false,
          "name": "actualSrcAmount",
          "type": "uint256"
        },
        {
          "indexed": false,
          "name": "actualDestAmount",
          "type": "uint256"
        }
      ],
      "name": "ExecuteTrade",
      "type": "event"
    },
    {
      "anonymous": false,
      "inputs": [
        {
          "indexed": false,
          "name": "newNetworkContract",
          "type": "address"
        },
        {
          "indexed": false,
          "name": "oldNetworkContract",
          "type": "address"
        }
      ],
      "name": "KyberNetworkSet",
      "type": "event"
    },
    {
      "anonymous": false,
      "inputs": [
        {
          "indexed": false,
          "name": "token",
          "type": "address"
        },
        {
          "indexed": false,
          "name": "amount",
          "type": "uint256"
        },
        {
          "indexed": false,
          "name": "sendTo",
          "type": "address"
        }
      ],
      "name": "TokenWithdraw",
      "type": "event"
    },
    {
      "anonymous": false,
      "inputs": [
        {
          "indexed": false,
          "name": "amount",
          "type": "uint256"
        },
        {
          "indexed": false,
          "name": "sendTo",
          "type": "address"
        }
      ],
      "name": "EtherWithdraw",
      "type": "event"
    },
    {
      "anonymous": false,
      "inputs": [
        {
          "indexed": false,
          "name": "pendingAdmin",
          "type": "address"
        }
      ],
      "name": "TransferAdminPending",
      "type": "event"
    },
    {
      "anonymous": false,
      "inputs": [
        {
          "indexed": false,
          "name": "newAdmin",
          "type": "address"
        },
        {
          "indexed": false,
          "name": "previousAdmin",
          "type": "address"
        }
      ],
      "name": "AdminClaimed",
      "type": "event"
    },
    {
      "anonymous": false,
      "inputs": [
        {
          "indexed": false,
          "name": "newAlerter",
          "type": "address"
        },
        {
          "indexed": false,
          "name": "isAdd",
          "type": "bool"
        }
      ],
      "name": "AlerterAdded",
      "type": "event"
    },
    {
      "anonymous": false,
      "inputs": [
        {
          "indexed": false,
          "name": "newOperator",
          "type": "address"
        },
        {
          "indexed": false,
          "name": "isAdd",
          "type": "bool"
        }
      ],
      "name": "OperatorAdded",
      "type": "event"
    },
    {
      "constant": false,
      "inputs": [
        {
          "name": "src",
          "type": "address"
        },
        {
          "name": "srcAmount",
          "type": "uint256"
        },
        {
          "name": "dest",
          "type": "address"
        },
        {
          "name": "destAddress",
          "type": "address"
        },
        {
          "name": "maxDestAmount",
          "type": "uint256"
        },
        {
          "name": "minConversionRate",
          "type": "uint256"
        },
        {
          "name": "walletId",
          "type": "address"
        }
      ],
      "name": "trade",
      "outputs": [
        {
          "name": "",
          "type": "uint256"
        }
      ],
      "payable": true,
      "stateMutability": "payable",
      "type": "function"
    },
    {
      "constant": false,
      "inputs": [
        {
          "name": "src",
          "type": "address"
        },
        {
          "name": "srcAmount",
          "type": "uint256"
        },
        {
          "name": "dest",
          "type": "address"
        },
        {
          "name": "minConversionRate",
          "type": "uint256"
        }
      ],
      "name": "swapTokenToToken",
      "outputs": [
        {
          "name": "",
          "type": "uint256"
        }
      ],
      "payable": false,
      "stateMutability": "nonpayable",
      "type": "function"
    },
    {
      "constant": false,
      "inputs": [
        {
          "name": "token",
          "type": "address"
        },
        {
          "name": "minConversionRate",
          "type": "uint256"
        }
      ],
      "name": "swapEtherToToken",
      "outputs": [
        {
          "name": "",
          "type": "uint256"
        }
      ],
      "payable": true,
      "stateMutability": "payable",
      "type": "function"
    },
    {
      "constant": false,
      "inputs": [
        {
          "name": "token",
          "type": "address"
        },
        {
          "name": "srcAmount",
          "type": "uint256"
        },
        {
          "name": "minConversionRate",
          "type": "uint256"
        }
      ],
      "name": "swapTokenToEther",
      "outputs": [
        {
          "name": "",
          "type": "uint256"
        }
      ],
      "payable": false,
      "stateMutability": "nonpayable",
      "type": "function"
    },
    {
      "constant": false,
      "inputs": [
        {
          "name": "src",
          "type": "address"
        },
        {
          "name": "srcAmount",
          "type": "uint256"
        },
        {
          "name": "dest",
          "type": "address"
        },
        {
          "name": "destAddress",
          "type": "address"
        },
        {
          "name": "maxDestAmount",
          "type": "uint256"
        },
        {
          "name": "minConversionRate",
          "type": "uint256"
        },
        {
          "name": "walletId",
          "type": "address"
        },
        {
          "name": "hint",
          "type": "bytes"
        }
      ],
      "name": "tradeWithHint",
      "outputs": [
        {
          "name": "",
          "type": "uint256"
        }
      ],
      "payable": true,
      "stateMutability": "payable",
      "type": "function"
    },
    {
      "constant": false,
      "inputs": [
        {
          "name": "_kyberNetworkContract",
          "type": "address"
        }
      ],
      "name": "setKyberNetworkContract",
      "outputs": [],
      "payable": false,
      "stateMutability": "nonpayable",
      "type": "function"
    },
    {
      "constant": true,
      "inputs": [
        {
          "name": "src",
          "type": "address"
        },
        {
          "name": "dest",
          "type": "address"
        },
        {
          "name": "srcQty",
          "type": "uint256"
        }
      ],
      "name": "getExpectedRate",
      "outputs": [
        {
          "name": "expectedRate",
          "type": "uint256"
        },
        {
          "name": "slippageRate",
          "type": "uint256"
        }
      ],
      "payable": false,
      "stateMutability": "view",
      "type": "function"
    },
    {
      "constant": true,
      "inputs": [
        {
          "name": "user",
          "type": "address"
        }
      ],
      "name": "getUserCapInWei",
      "outputs": [
        {
          "name": "",
          "type": "uint256"
        }
      ],
      "payable": false,
      "stateMutability": "view",
      "type": "function"
    },
    {
      "constant": true,
      "inputs": [
        {
          "name": "user",
          "type": "address"
        },
        {
          "name": "token",
          "type": "address"
        }
      ],
      "name": "getUserCapInTokenWei",
      "outputs": [
        {
          "name": "",
          "type": "uint256"
        }
      ],
      "payable": false,
      "stateMutability": "view",
      "type": "function"
    },
    {
      "constant": true,
      "inputs": [],
      "name": "maxGasPrice",
      "outputs": [
        {
          "name": "",
          "type": "uint256"
        }
      ],
      "payable": false,
      "stateMutability": "view",
      "type": "function"
    },
    {
      "constant": true,
      "inputs": [],
      "name": "enabled",
      "outputs": [
        {
          "name": "",
          "type": "bool"
        }
      ],
      "payable": false,
      "stateMutability": "view",
      "type": "function"
    },
    {
      "constant": true,
      "inputs": [
        {
          "name": "field",
          "type": "bytes32"
        }
      ],
      "name": "info",
      "outputs": [
        {
          "name": "",
          "type": "uint256"
        }
      ],
      "payable": false,
      "stateMutability": "view",
      "type": "function"
    }
  ],
  "bytecode": "0x6060604052341561000f57600080fd5b60405160208061316283398101604052808051906020019091905050336000806101000a81548173ffffffffffffffffffffffffffffffffffffffff021916908373ffffffffffffffffffffffffffffffffffffffff160217905550600073ffffffffffffffffffffffffffffffffffffffff168173ffffffffffffffffffffffffffffffffffffffff16141515156100a757600080fd5b806000806101000a81548173ffffffffffffffffffffffffffffffffffffffff021916908373ffffffffffffffffffffffffffffffffffffffff1602179055505061306b806100f76000396000f30060606040526004361061015f576000357c0100000000000000000000000000000000000000000000000000000000900463ffffffff16806301a12fd314610164578063238dafe01461019d57806326782247146101ca57806327a099d81461021f57806329589f61146102895780633bba21dc146103865780633ccdbb28146103e55780633de39c1114610446578063408ee7fe1461046f5780634f61ff8b146104a85780636432679f146104fd5780637409e2eb1461054a57806375829def146105c857806377f50f97146106015780637a2a0456146106165780637acc8678146106615780637c423f541461069a578063809a9e55146107045780638eaaeecf146107805780639870d7fe146107ec578063abd188a814610825578063ac8a584a1461085e578063b64a097e14610897578063cb3c28c7146108d2578063ce56c4541461098c578063d4fac45d146109ce578063f851a44014610a3a575b600080fd5b341561016f57600080fd5b61019b600480803573ffffffffffffffffffffffffffffffffffffffff16906020019091905050610a8f565b005b34156101a857600080fd5b6101b0610d51565b604051808215151515815260200191505060405180910390f35b34156101d557600080fd5b6101dd610e01565b604051808273ffffffffffffffffffffffffffffffffffffffff1673ffffffffffffffffffffffffffffffffffffffff16815260200191505060405180910390f35b341561022a57600080fd5b610232610e27565b6040518080602001828103825283818151815260200191508051906020019060200280838360005b8381101561027557808201518184015260208101905061025a565b505050509050019250505060405180910390f35b610370600480803573ffffffffffffffffffffffffffffffffffffffff1690602001909190803590602001909190803573ffffffffffffffffffffffffffffffffffffffff1690602001909190803573ffffffffffffffffffffffffffffffffffffffff1690602001909190803590602001909190803590602001909190803573ffffffffffffffffffffffffffffffffffffffff1690602001909190803590602001908201803590602001908080601f01602080910402602001604051908101604052809392919081815260200183838082843782019150505050505091905050610ebb565b6040518082815260200191505060405180910390f35b341561039157600080fd5b6103cf600480803573ffffffffffffffffffffffffffffffffffffffff16906020019091908035906020019091908035906020019091905050611436565b6040518082815260200191505060405180910390f35b34156103f057600080fd5b610444600480803573ffffffffffffffffffffffffffffffffffffffff1690602001909190803590602001909190803573ffffffffffffffffffffffffffffffffffffffff1690602001909190505061147b565b005b341561045157600080fd5b61045961164b565b6040518082815260200191505060405180910390f35b341561047a57600080fd5b6104a6600480803573ffffffffffffffffffffffffffffffffffffffff169060200190919050506116fb565b005b34156104b357600080fd5b6104bb6118f1565b604051808273ffffffffffffffffffffffffffffffffffffffff1673ffffffffffffffffffffffffffffffffffffffff16815260200191505060405180910390f35b341561050857600080fd5b610534600480803573ffffffffffffffffffffffffffffffffffffffff16906020019091905050611917565b6040518082815260200191505060405180910390f35b341561055557600080fd5b6105b2600480803573ffffffffffffffffffffffffffffffffffffffff1690602001909190803590602001909190803573ffffffffffffffffffffffffffffffffffffffff16906020019091908035906020019091905050611a00565b6040518082815260200191505060405180910390f35b34156105d357600080fd5b6105ff600480803573ffffffffffffffffffffffffffffffffffffffff16906020019091905050611a32565b005b341561060c57600080fd5b610614611b92565b005b61064b600480803573ffffffffffffffffffffffffffffffffffffffff16906020019091908035906020019091905050611d6e565b6040518082815260200191505060405180910390f35b341561066c57600080fd5b610698600480803573ffffffffffffffffffffffffffffffffffffffff16906020019091905050611db2565b005b34156106a557600080fd5b6106ad611fa7565b6040518080602001828103825283818151815260200191508051906020019060200280838360005b838110156106f05780820151818401526020810190506106d5565b505050509050019250505060405180910390f35b341561070f57600080fd5b610763600480803573ffffffffffffffffffffffffffffffffffffffff1690602001909190803573ffffffffffffffffffffffffffffffffffffffff1690602001909190803590602001909190505061203b565b604051808381526020018281526020019250505060405180910390f35b341561078b57600080fd5b6107d6600480803573ffffffffffffffffffffffffffffffffffffffff1690602001909190803573ffffffffffffffffffffffffffffffffffffffff1690602001909190505061216b565b6040518082815260200191505060405180910390f35b34156107f757600080fd5b610823600480803573ffffffffffffffffffffffffffffffffffffffff16906020019091905050612289565b005b341561083057600080fd5b61085c600480803573ffffffffffffffffffffffffffffffffffffffff1690602001909190505061247f565b005b341561086957600080fd5b610895600480803573ffffffffffffffffffffffffffffffffffffffff16906020019091905050612613565b005b34156108a257600080fd5b6108bc6004808035600019169060200190919050506128d8565b6040518082815260200191505060405180910390f35b610976600480803573ffffffffffffffffffffffffffffffffffffffff1690602001909190803590602001909190803573ffffffffffffffffffffffffffffffffffffffff1690602001909190803573ffffffffffffffffffffffffffffffffffffffff1690602001909190803590602001909190803590602001909190803573ffffffffffffffffffffffffffffffffffffffff1690602001909190505061299d565b6040518082815260200191505060405180910390f35b341561099757600080fd5b6109cc600480803590602001909190803573ffffffffffffffffffffffffffffffffffffffff169060200190919050506129c5565b005b34156109d957600080fd5b610a24600480803573ffffffffffffffffffffffffffffffffffffffff1690602001909190803573ffffffffffffffffffffffffffffffffffffffff16906020019091905050612acf565b6040518082815260200191505060405180910390f35b3415610a4557600080fd5b610a4d612bff565b604051808273ffffffffffffffffffffffffffffffffffffffff1673ffffffffffffffffffffffffffffffffffffffff16815260200191505060405180910390f35b60008060009054906101000a900473ffffffffffffffffffffffffffffffffffffffff1673ffffffffffffffffffffffffffffffffffffffff163373ffffffffffffffffffffffffffffffffffffffff16141515610aec57600080fd5b600360008373ffffffffffffffffffffffffffffffffffffffff1673ffffffffffffffffffffffffffffffffffffffff16815260200190815260200160002060009054906101000a900460ff161515610b4457600080fd5b6000600360008473ffffffffffffffffffffffffffffffffffffffff1673ffffffffffffffffffffffffffffffffffffffff16815260200190815260200160002060006101000a81548160ff021916908315150217905550600090505b600580549050811015610d4d578173ffffffffffffffffffffffffffffffffffffffff16600582815481101515610bd457fe5b906000526020600020900160009054906101000a900473ffffffffffffffffffffffffffffffffffffffff1673ffffffffffffffffffffffffffffffffffffffff161415610d42576005600160058054905003815481101515610c3357fe5b906000526020600020900160009054906101000a900473ffffffffffffffffffffffffffffffffffffffff16600582815481101515610c6e57fe5b906000526020600020900160006101000a81548173ffffffffffffffffffffffffffffffffffffffff021916908373ffffffffffffffffffffffffffffffffffffffff1602179055506005805480919060019003610ccc9190612f5e565b507f5611bf3e417d124f97bf2c788843ea8bb502b66079fbee02158ef30b172cb762826000604051808373ffffffffffffffffffffffffffffffffffffffff1673ffffffffffffffffffffffffffffffffffffffff168152602001821515151581526020019250505060405180910390a1610d4d565b806001019050610ba1565b5050565b6000600760009054906101000a900473ffffffffffffffffffffffffffffffffffffffff1673ffffffffffffffffffffffffffffffffffffffff1663238dafe06000604051602001526040518163ffffffff167c0100000000000000000000000000000000000000000000000000000000028152600401602060405180830381600087803b1515610de157600080fd5b6102c65a03f11515610df257600080fd5b50505060405180519050905090565b600160009054906101000a900473ffffffffffffffffffffffffffffffffffffffff1681565b610e2f612f8a565b6004805480602002602001604051908101604052809291908181526020018280548015610eb157602002820191906000526020600020905b8160009054906101000a900473ffffffffffffffffffffffffffffffffffffffff1673ffffffffffffffffffffffffffffffffffffffff1681526020019060010190808311610e67575b5050505050905090565b6000610ec5612f9e565b6000610ecf612fb8565b73eeeeeeeeeeeeeeeeeeeeeeeeeeeeeeeeeeeeeeee73ffffffffffffffffffffffffffffffffffffffff168c73ffffffffffffffffffffffffffffffffffffffff161480610f1d5750600034145b1515610f2857600080fd5b610f328c33612acf565b836000018181525050610f458a8a612acf565b83602001818152505073eeeeeeeeeeeeeeeeeeeeeeeeeeeeeeeeeeeeeeee73ffffffffffffffffffffffffffffffffffffffff168c73ffffffffffffffffffffffffffffffffffffffff161415610fab57348360000181815101915081815250506110d3565b8b73ffffffffffffffffffffffffffffffffffffffff166323b872dd33600760009054906101000a900473ffffffffffffffffffffffffffffffffffffffff168e6000604051602001526040518463ffffffff167c0100000000000000000000000000000000000000000000000000000000028152600401808473ffffffffffffffffffffffffffffffffffffffff1673ffffffffffffffffffffffffffffffffffffffff1681526020018373ffffffffffffffffffffffffffffffffffffffff1673ffffffffffffffffffffffffffffffffffffffff1681526020018281526020019350505050602060405180830381600087803b15156110ac57600080fd5b6102c65a03f115156110bd57600080fd5b5050506040518051905015156110d257600080fd5b5b600760009054906101000a900473ffffffffffffffffffffffffffffffffffffffff1673ffffffffffffffffffffffffffffffffffffffff1663088322ef34338f8f8f8f8f8f8f8f6000604051602001526040518b63ffffffff167c0100000000000000000000000000000000000000000000000000000000028152600401808a73ffffffffffffffffffffffffffffffffffffffff1673ffffffffffffffffffffffffffffffffffffffff1681526020018973ffffffffffffffffffffffffffffffffffffffff1673ffffffffffffffffffffffffffffffffffffffff1681526020018881526020018773ffffffffffffffffffffffffffffffffffffffff1673ffffffffffffffffffffffffffffffffffffffff1681526020018673ffffffffffffffffffffffffffffffffffffffff1673ffffffffffffffffffffffffffffffffffffffff1681526020018581526020018481526020018373ffffffffffffffffffffffffffffffffffffffff1673ffffffffffffffffffffffffffffffffffffffff16815260200180602001828103825283818151815260200191508051906020019080838360005b8381101561129b578082015181840152602081019050611280565b50505050905090810190601f1680156112c85780820380516001836020036101000a031916815260200191505b509a50505050505050505050506020604051808303818588803b15156112ed57600080fd5b6125ee5a03f115156112fe57600080fd5b50505050604051805190509150611320836000015184602001518e8d8d612c24565b905080602001518214151561133457600080fd5b8781602001511115151561134757600080fd5b8681604001511015151561135a57600080fd5b3373ffffffffffffffffffffffffffffffffffffffff167f1849bd6a030a1bca28b83437fd3de96f3d27a5d172fa7e9c78e7b61468928a398d8c84600001518560200151604051808573ffffffffffffffffffffffffffffffffffffffff1673ffffffffffffffffffffffffffffffffffffffff1681526020018473ffffffffffffffffffffffffffffffffffffffff1673ffffffffffffffffffffffffffffffffffffffff16815260200183815260200182815260200194505050505060405180910390a28060200151935050505098975050505050505050565b6000611440612fda565b611471858573eeeeeeeeeeeeeeeeeeeeeeeeeeeeeeeeeeeeeeee336b204fce5e3e2502611000000088600088610ebb565b9150509392505050565b6000809054906101000a900473ffffffffffffffffffffffffffffffffffffffff1673ffffffffffffffffffffffffffffffffffffffff163373ffffffffffffffffffffffffffffffffffffffff161415156114d657600080fd5b8273ffffffffffffffffffffffffffffffffffffffff1663a9059cbb82846000604051602001526040518363ffffffff167c0100000000000000000000000000000000000000000000000000000000028152600401808373ffffffffffffffffffffffffffffffffffffffff1673ffffffffffffffffffffffffffffffffffffffff16815260200182815260200192505050602060405180830381600087803b151561158157600080fd5b6102c65a03f1151561159257600080fd5b5050506040518051905015156115a757600080fd5b7f72cb8a894ddb372ceec3d2a7648d86f17d5a15caae0e986c53109b8a9a9385e6838383604051808473ffffffffffffffffffffffffffffffffffffffff1673ffffffffffffffffffffffffffffffffffffffff1681526020018381526020018273ffffffffffffffffffffffffffffffffffffffff1673ffffffffffffffffffffffffffffffffffffffff168152602001935050505060405180910390a1505050565b6000600760009054906101000a900473ffffffffffffffffffffffffffffffffffffffff1673ffffffffffffffffffffffffffffffffffffffff16633de39c116000604051602001526040518163ffffffff167c0100000000000000000000000000000000000000000000000000000000028152600401602060405180830381600087803b15156116db57600080fd5b6102c65a03f115156116ec57600080fd5b50505060405180519050905090565b6000809054906101000a900473ffffffffffffffffffffffffffffffffffffffff1673ffffffffffffffffffffffffffffffffffffffff163373ffffffffffffffffffffffffffffffffffffffff1614151561175657600080fd5b600360008273ffffffffffffffffffffffffffffffffffffffff1673ffffffffffffffffffffffffffffffffffffffff16815260200190815260200160002060009054906101000a900460ff161515156117af57600080fd5b60326005805490501015156117c357600080fd5b7f5611bf3e417d124f97bf2c788843ea8bb502b66079fbee02158ef30b172cb762816001604051808373ffffffffffffffffffffffffffffffffffffffff1673ffffffffffffffffffffffffffffffffffffffff168152602001821515151581526020019250505060405180910390a16001600360008373ffffffffffffffffffffffffffffffffffffffff1673ffffffffffffffffffffffffffffffffffffffff16815260200190815260200160002060006101000a81548160ff0219169083151502179055506005805480600101828161189f9190612fee565b9160005260206000209001600083909190916101000a81548173ffffffffffffffffffffffffffffffffffffffff021916908373ffffffffffffffffffffffffffffffffffffffff1602179055505050565b600760009054906101000a900473ffffffffffffffffffffffffffffffffffffffff1681565b6000600760009054906101000a900473ffffffffffffffffffffffffffffffffffffffff1673ffffffffffffffffffffffffffffffffffffffff16636432679f836000604051602001526040518263ffffffff167c0100000000000000000000000000000000000000000000000000000000028152600401808273ffffffffffffffffffffffffffffffffffffffff1673ffffffffffffffffffffffffffffffffffffffff168152602001915050602060405180830381600087803b15156119de57600080fd5b6102c65a03f115156119ef57600080fd5b505050604051805190509050919050565b6000611a0a612fda565b611a27868686336b204fce5e3e2502611000000088600088610ebb565b915050949350505050565b6000809054906101000a900473ffffffffffffffffffffffffffffffffffffffff1673ffffffffffffffffffffffffffffffffffffffff163373ffffffffffffffffffffffffffffffffffffffff16141515611a8d57600080fd5b600073ffffffffffffffffffffffffffffffffffffffff168173ffffffffffffffffffffffffffffffffffffffff1614151515611ac957600080fd5b7f3b81caf78fa51ecbc8acb482fd7012a277b428d9b80f9d156e8a54107496cc40600160009054906101000a900473ffffffffffffffffffffffffffffffffffffffff16604051808273ffffffffffffffffffffffffffffffffffffffff1673ffffffffffffffffffffffffffffffffffffffff16815260200191505060405180910390a180600160006101000a81548173ffffffffffffffffffffffffffffffffffffffff021916908373ffffffffffffffffffffffffffffffffffffffff16021790555050565b3373ffffffffffffffffffffffffffffffffffffffff16600160009054906101000a900473ffffffffffffffffffffffffffffffffffffffff1673ffffffffffffffffffffffffffffffffffffffff16141515611bee57600080fd5b7f65da1cfc2c2e81576ad96afb24a581f8e109b7a403b35cbd3243a1c99efdb9ed600160009054906101000a900473ffffffffffffffffffffffffffffffffffffffff166000809054906101000a900473ffffffffffffffffffffffffffffffffffffffff16604051808373ffffffffffffffffffffffffffffffffffffffff1673ffffffffffffffffffffffffffffffffffffffff1681526020018273ffffffffffffffffffffffffffffffffffffffff1673ffffffffffffffffffffffffffffffffffffffff1681526020019250505060405180910390a1600160009054906101000a900473ffffffffffffffffffffffffffffffffffffffff166000806101000a81548173ffffffffffffffffffffffffffffffffffffffff021916908373ffffffffffffffffffffffffffffffffffffffff1602179055506000600160006101000a81548173ffffffffffffffffffffffffffffffffffffffff021916908373ffffffffffffffffffffffffffffffffffffffff160217905550565b6000611d78612fda565b611da973eeeeeeeeeeeeeeeeeeeeeeeeeeeeeeeeeeeeeeee3486336b204fce5e3e2502611000000088600088610ebb565b91505092915050565b6000809054906101000a900473ffffffffffffffffffffffffffffffffffffffff1673ffffffffffffffffffffffffffffffffffffffff163373ffffffffffffffffffffffffffffffffffffffff16141515611e0d57600080fd5b600073ffffffffffffffffffffffffffffffffffffffff168173ffffffffffffffffffffffffffffffffffffffff1614151515611e4957600080fd5b7f3b81caf78fa51ecbc8acb482fd7012a277b428d9b80f9d156e8a54107496cc4081604051808273ffffffffffffffffffffffffffffffffffffffff1673ffffffffffffffffffffffffffffffffffffffff16815260200191505060405180910390a17f65da1cfc2c2e81576ad96afb24a581f8e109b7a403b35cbd3243a1c99efdb9ed816000809054906101000a900473ffffffffffffffffffffffffffffffffffffffff16604051808373ffffffffffffffffffffffffffffffffffffffff1673ffffffffffffffffffffffffffffffffffffffff1681526020018273ffffffffffffffffffffffffffffffffffffffff1673ffffffffffffffffffffffffffffffffffffffff1681526020019250505060405180910390a1806000806101000a81548173ffffffffffffffffffffffffffffffffffffffff021916908373ffffffffffffffffffffffffffffffffffffffff16021790555050565b611faf612f8a565b600580548060200260200160405190810160405280929190818152602001828054801561203157602002820191906000526020600020905b8160009054906101000a900473ffffffffffffffffffffffffffffffffffffffff1673ffffffffffffffffffffffffffffffffffffffff1681526020019060010190808311611fe7575b5050505050905090565b600080600760009054906101000a900473ffffffffffffffffffffffffffffffffffffffff1673ffffffffffffffffffffffffffffffffffffffff1663809a9e558686866000604051604001526040518463ffffffff167c0100000000000000000000000000000000000000000000000000000000028152600401808473ffffffffffffffffffffffffffffffffffffffff1673ffffffffffffffffffffffffffffffffffffffff1681526020018373ffffffffffffffffffffffffffffffffffffffff1673ffffffffffffffffffffffffffffffffffffffff16815260200182815260200193505050506040805180830381600087803b151561213e57600080fd5b6102c65a03f1151561214f57600080fd5b5050506040518051906020018051905091509150935093915050565b6000600760009054906101000a900473ffffffffffffffffffffffffffffffffffffffff1673ffffffffffffffffffffffffffffffffffffffff16638eaaeecf84846000604051602001526040518363ffffffff167c0100000000000000000000000000000000000000000000000000000000028152600401808373ffffffffffffffffffffffffffffffffffffffff1673ffffffffffffffffffffffffffffffffffffffff1681526020018273ffffffffffffffffffffffffffffffffffffffff1673ffffffffffffffffffffffffffffffffffffffff16815260200192505050602060405180830381600087803b151561226657600080fd5b6102c65a03f1151561227757600080fd5b50505060405180519050905092915050565b6000809054906101000a900473ffffffffffffffffffffffffffffffffffffffff1673ffffffffffffffffffffffffffffffffffffffff163373ffffffffffffffffffffffffffffffffffffffff161415156122e457600080fd5b600260008273ffffffffffffffffffffffffffffffffffffffff1673ffffffffffffffffffffffffffffffffffffffff16815260200190815260200160002060009054906101000a900460ff1615151561233d57600080fd5b603260048054905010151561235157600080fd5b7f091a7a4b85135fdd7e8dbc18b12fabe5cc191ea867aa3c2e1a24a102af61d58b816001604051808373ffffffffffffffffffffffffffffffffffffffff1673ffffffffffffffffffffffffffffffffffffffff168152602001821515151581526020019250505060405180910390a16001600260008373ffffffffffffffffffffffffffffffffffffffff1673ffffffffffffffffffffffffffffffffffffffff16815260200190815260200160002060006101000a81548160ff0219169083151502179055506004805480600101828161242d9190612fee565b9160005260206000209001600083909190916101000a81548173ffffffffffffffffffffffffffffffffffffffff021916908373ffffffffffffffffffffffffffffffffffffffff1602179055505050565b6000809054906101000a900473ffffffffffffffffffffffffffffffffffffffff1673ffffffffffffffffffffffffffffffffffffffff163373ffffffffffffffffffffffffffffffffffffffff161415156124da57600080fd5b600073ffffffffffffffffffffffffffffffffffffffff168173ffffffffffffffffffffffffffffffffffffffff161415151561251657600080fd5b7f8936e1f096bf0a8c9df862b3d1d5b82774cad78116200175f00b5b7ba3010b0281600760009054906101000a900473ffffffffffffffffffffffffffffffffffffffff16604051808373ffffffffffffffffffffffffffffffffffffffff1673ffffffffffffffffffffffffffffffffffffffff1681526020018273ffffffffffffffffffffffffffffffffffffffff1673ffffffffffffffffffffffffffffffffffffffff1681526020019250505060405180910390a180600760006101000a81548173ffffffffffffffffffffffffffffffffffffffff021916908373ffffffffffffffffffffffffffffffffffffffff16021790555050565b60008060009054906101000a900473ffffffffffffffffffffffffffffffffffffffff1673ffffffffffffffffffffffffffffffffffffffff163373ffffffffffffffffffffffffffffffffffffffff1614151561267057600080fd5b600260008373ffffffffffffffffffffffffffffffffffffffff1673ffffffffffffffffffffffffffffffffffffffff16815260200190815260200160002060009054906101000a900460ff1615156126c857600080fd5b6000600260008473ffffffffffffffffffffffffffffffffffffffff1673ffffffffffffffffffffffffffffffffffffffff16815260200190815260200160002060006101000a81548160ff021916908315150217905550600090505b6004805490508110156128d4578173ffffffffffffffffffffffffffffffffffffffff1660048281548110151561275857fe5b906000526020600020900160009054906101000a900473ffffffffffffffffffffffffffffffffffffffff1673ffffffffffffffffffffffffffffffffffffffff1614156128c95760046001600480549050038154811015156127b757fe5b906000526020600020900160009054906101000a900473ffffffffffffffffffffffffffffffffffffffff166004828154811015156127f257fe5b906000526020600020900160006101000a81548173ffffffffffffffffffffffffffffffffffffffff021916908373ffffffffffffffffffffffffffffffffffffffff16021790555060016004818180549050039150816128539190612f5e565b507f091a7a4b85135fdd7e8dbc18b12fabe5cc191ea867aa3c2e1a24a102af61d58b826000604051808373ffffffffffffffffffffffffffffffffffffffff1673ffffffffffffffffffffffffffffffffffffffff168152602001821515151581526020019250505060405180910390a16128d4565b806001019050612725565b5050565b6000600760009054906101000a900473ffffffffffffffffffffffffffffffffffffffff1673ffffffffffffffffffffffffffffffffffffffff1663b64a097e836000604051602001526040518263ffffffff167c0100000000000000000000000000000000000000000000000000000000028152600401808260001916600019168152602001915050602060405180830381600087803b151561297b57600080fd5b6102c65a03f1151561298c57600080fd5b505050604051805190509050919050565b60006129a7612fda565b6129b78989898989898988610ebb565b915050979650505050505050565b6000809054906101000a900473ffffffffffffffffffffffffffffffffffffffff1673ffffffffffffffffffffffffffffffffffffffff163373ffffffffffffffffffffffffffffffffffffffff16141515612a2057600080fd5b8073ffffffffffffffffffffffffffffffffffffffff166108fc839081150290604051600060405180830381858888f193505050501515612a6057600080fd5b7fec47e7ed86c86774d1a72c19f35c639911393fe7c1a34031fdbd260890da90de8282604051808381526020018273ffffffffffffffffffffffffffffffffffffffff1673ffffffffffffffffffffffffffffffffffffffff1681526020019250505060405180910390a15050565b600073eeeeeeeeeeeeeeeeeeeeeeeeeeeeeeeeeeeeeeee73ffffffffffffffffffffffffffffffffffffffff168373ffffffffffffffffffffffffffffffffffffffff161415612b38578173ffffffffffffffffffffffffffffffffffffffff16319050612bf9565b8273ffffffffffffffffffffffffffffffffffffffff166370a08231836000604051602001526040518263ffffffff167c0100000000000000000000000000000000000000000000000000000000028152600401808273ffffffffffffffffffffffffffffffffffffffff1673ffffffffffffffffffffffffffffffffffffffff168152602001915050602060405180830381600087803b1515612bdb57600080fd5b6102c65a03f11515612bec57600080fd5b5050506040518051905090505b92915050565b6000809054906101000a900473ffffffffffffffffffffffffffffffffffffffff1681565b612c2c612fb8565b600080612c398633612acf565b9150612c458585612acf565b90508681111515612c5557600080fd5b8188111515612c6357600080fd5b868103836020018181525050818803836000018181525050612c9f83600001518460200151612c9189612cb3565b612c9a89612cb3565b612d4d565b836040018181525050505095945050505050565b600080600660008473ffffffffffffffffffffffffffffffffffffffff1673ffffffffffffffffffffffffffffffffffffffff168152602001908152602001600020541415612d0657612d0582612dfe565b5b600660008373ffffffffffffffffffffffffffffffffffffffff1673ffffffffffffffffffffffffffffffffffffffff168152602001908152602001600020549050919050565b60006b204fce5e3e250261100000008511151515612d6a57600080fd5b6b204fce5e3e250261100000008411151515612d8557600080fd5b8282101515612dc457601283830311151515612da057600080fd5b84838303600a0a02670de0b6b3a76400008502811515612dbc57fe5b049050612df6565b601282840311151515612dd657600080fd5b84828403600a0a670de0b6b3a7640000860202811515612df257fe5b0490505b949350505050565b73eeeeeeeeeeeeeeeeeeeeeeeeeeeeeeeeeeeeeeee73ffffffffffffffffffffffffffffffffffffffff168173ffffffffffffffffffffffffffffffffffffffff161415612e90576012600660008373ffffffffffffffffffffffffffffffffffffffff1673ffffffffffffffffffffffffffffffffffffffff16815260200190815260200160002081905550612f5b565b8073ffffffffffffffffffffffffffffffffffffffff1663313ce5676000604051602001526040518163ffffffff167c0100000000000000000000000000000000000000000000000000000000028152600401602060405180830381600087803b1515612efc57600080fd5b6102c65a03f11515612f0d57600080fd5b50505060405180519050600660008373ffffffffffffffffffffffffffffffffffffffff1673ffffffffffffffffffffffffffffffffffffffff168152602001908152602001600020819055505b50565b815481835581811511612f8557818360005260206000209182019101612f84919061301a565b5b505050565b602060405190810160405280600081525090565b604080519081016040528060008152602001600081525090565b6060604051908101604052806000815260200160008152602001600081525090565b602060405190810160405280600081525090565b81548183558181151161301557818360005260206000209182019101613014919061301a565b5b505050565b61303c91905b80821115613038576000816000905550600101613020565b5090565b905600a165627a7a72305820f4e74ea1efb9f7aab1b5154bb39d0c86c01ac581fa0430a1c3c1e379ae4627130029",
  "source": "pragma solidity 0.4.18;\n\n\nimport \"./ERC20Interface.sol\";\nimport \"./Withdrawable.sol\";\nimport \"./Utils2.sol\";\nimport \"./KyberNetworkInterface.sol\";\nimport \"./KyberNetworkProxyInterface.sol\";\nimport \"./SimpleNetworkInterface.sol\";\n\n\n////////////////////////////////////////////////////////////////////////////////////////////////////////\n/// @title Kyber Network proxy for main contract\ncontract KyberNetworkProxy is KyberNetworkProxyInterface, SimpleNetworkInterface, Withdrawable, Utils2 {\n\n    KyberNetworkInterface public kyberNetworkContract;\n\n    function KyberNetworkProxy(address _admin) public {\n        require(_admin != address(0));\n        admin = _admin;\n    }\n\n    /// @notice use token address ETH_TOKEN_ADDRESS for ether\n    /// @dev makes a trade between src and dest token and send dest token to destAddress\n    /// @param src Src token\n    /// @param srcAmount amount of src tokens\n    /// @param dest   Destination token\n    /// @param destAddress Address to send tokens to\n    /// @param maxDestAmount A limit on the amount of dest tokens\n    /// @param minConversionRate The minimal conversion rate. If actual rate is lower, trade is canceled.\n    /// @param walletId is the wallet ID to send part of the fees\n    /// @return amount of actual dest tokens\n    function trade(\n        ERC20 src,\n        uint srcAmount,\n        ERC20 dest,\n        address destAddress,\n        uint maxDestAmount,\n        uint minConversionRate,\n        address walletId\n    )\n        public\n        payable\n        returns(uint)\n    {\n        bytes memory hint;\n\n        return tradeWithHint(\n            src,\n            srcAmount,\n            dest,\n            destAddress,\n            maxDestAmount,\n            minConversionRate,\n            walletId,\n            hint\n        );\n    }\n\n    /// @dev makes a trade between src and dest token and send dest tokens to msg sender\n    /// @param src Src token\n    /// @param srcAmount amount of src tokens\n    /// @param dest Destination token\n    /// @param minConversionRate The minimal conversion rate. If actual rate is lower, trade is canceled.\n    /// @return amount of actual dest tokens\n    function swapTokenToToken(\n        ERC20 src,\n        uint srcAmount,\n        ERC20 dest,\n        uint minConversionRate\n    )\n        public\n        returns(uint)\n    {\n        bytes memory hint;\n\n        return tradeWithHint(\n            src,\n            srcAmount,\n            dest,\n            msg.sender,\n            MAX_QTY,\n            minConversionRate,\n            0,\n            hint\n        );\n    }\n\n    /// @dev makes a trade from Ether to token. Sends token to msg sender\n    /// @param token Destination token\n    /// @param minConversionRate The minimal conversion rate. If actual rate is lower, trade is canceled.\n    /// @return amount of actual dest tokens\n    function swapEtherToToken(ERC20 token, uint minConversionRate) public payable returns(uint) {\n        bytes memory hint;\n\n        return tradeWithHint(\n            ETH_TOKEN_ADDRESS,\n            msg.value,\n            token,\n            msg.sender,\n            MAX_QTY,\n            minConversionRate,\n            0,\n            hint\n        );\n    }\n\n    /// @dev makes a trade from token to Ether, sends Ether to msg sender\n    /// @param token Src token\n    /// @param srcAmount amount of src tokens\n    /// @param minConversionRate The minimal conversion rate. If actual rate is lower, trade is canceled.\n    /// @return amount of actual dest tokens\n    function swapTokenToEther(ERC20 token, uint srcAmount, uint minConversionRate) public returns(uint) {\n        bytes memory hint;\n\n        return tradeWithHint(\n            token,\n            srcAmount,\n            ETH_TOKEN_ADDRESS,\n            msg.sender,\n            MAX_QTY,\n            minConversionRate,\n            0,\n            hint\n        );\n    }\n\n    struct UserBalance {\n        uint srcBalance;\n        uint destBalance;\n    }\n\n    event ExecuteTrade(address indexed trader, ERC20 src, ERC20 dest, uint actualSrcAmount, uint actualDestAmount);\n\n    /// @notice use token address ETH_TOKEN_ADDRESS for ether\n    /// @dev makes a trade between src and dest token and send dest token to destAddress\n    /// @param src Src token\n    /// @param srcAmount amount of src tokens\n    /// @param dest Destination token\n    /// @param destAddress Address to send tokens to\n    /// @param maxDestAmount A limit on the amount of dest tokens\n    /// @param minConversionRate The minimal conversion rate. If actual rate is lower, trade is canceled.\n    /// @param walletId is the wallet ID to send part of the fees\n    /// @param hint will give hints for the trade.\n    /// @return amount of actual dest tokens\n    function tradeWithHint(\n        ERC20 src,\n        uint srcAmount,\n        ERC20 dest,\n        address destAddress,\n        uint maxDestAmount,\n        uint minConversionRate,\n        address walletId,\n        bytes hint\n    )\n        public\n        payable\n        returns(uint)\n    {\n        require(src == ETH_TOKEN_ADDRESS || msg.value == 0);\n        \n        UserBalance memory userBalanceBefore;\n\n        userBalanceBefore.srcBalance = getBalance(src, msg.sender);\n        userBalanceBefore.destBalance = getBalance(dest, destAddress);\n\n        if (src == ETH_TOKEN_ADDRESS) {\n            userBalanceBefore.srcBalance += msg.value;\n        } else {\n            require(src.transferFrom(msg.sender, kyberNetworkContract, srcAmount));\n        }\n\n        uint reportedDestAmount = kyberNetworkContract.tradeWithHint.value(msg.value)(\n            msg.sender,\n            src,\n            srcAmount,\n            dest,\n            destAddress,\n            maxDestAmount,\n            minConversionRate,\n            walletId,\n            hint\n        );\n\n        TradeOutcome memory tradeOutcome = calculateTradeOutcome(\n            userBalanceBefore.srcBalance,\n            userBalanceBefore.destBalance,\n            src,\n            dest,\n            destAddress\n        );\n\n        require(reportedDestAmount == tradeOutcome.userDeltaDestAmount);\n        require(tradeOutcome.userDeltaDestAmount <= maxDestAmount);\n        require(tradeOutcome.actualRate >= minConversionRate);\n\n        ExecuteTrade(msg.sender, src, dest, tradeOutcome.userDeltaSrcAmount, tradeOutcome.userDeltaDestAmount);\n        return tradeOutcome.userDeltaDestAmount;\n    }\n\n    event KyberNetworkSet(address newNetworkContract, address oldNetworkContract);\n\n    function setKyberNetworkContract(KyberNetworkInterface _kyberNetworkContract) public onlyAdmin {\n\n        require(_kyberNetworkContract != address(0));\n\n        KyberNetworkSet(_kyberNetworkContract, kyberNetworkContract);\n\n        kyberNetworkContract = _kyberNetworkContract;\n    }\n\n    function getExpectedRate(ERC20 src, ERC20 dest, uint srcQty)\n        public view\n        returns(uint expectedRate, uint slippageRate)\n    {\n        return kyberNetworkContract.getExpectedRate(src, dest, srcQty);\n    }\n\n    function getUserCapInWei(address user) public view returns(uint) {\n        return kyberNetworkContract.getUserCapInWei(user);\n    }\n\n    function getUserCapInTokenWei(address user, ERC20 token) public view returns(uint) {\n        return kyberNetworkContract.getUserCapInTokenWei(user, token);\n    }\n\n    function maxGasPrice() public view returns(uint) {\n        return kyberNetworkContract.maxGasPrice();\n    }\n\n    function enabled() public view returns(bool) {\n        return kyberNetworkContract.enabled();\n    }\n\n    function info(bytes32 field) public view returns(uint) {\n        return kyberNetworkContract.info(field);\n    }\n\n    struct TradeOutcome {\n        uint userDeltaSrcAmount;\n        uint userDeltaDestAmount;\n        uint actualRate;\n    }\n\n    function calculateTradeOutcome (uint srcBalanceBefore, uint destBalanceBefore, ERC20 src, ERC20 dest,\n        address destAddress)\n        internal returns(TradeOutcome outcome)\n    {\n        uint userSrcBalanceAfter;\n        uint userDestBalanceAfter;\n\n        userSrcBalanceAfter = getBalance(src, msg.sender);\n        userDestBalanceAfter = getBalance(dest, destAddress);\n\n        //protect from underflow\n        require(userDestBalanceAfter > destBalanceBefore);\n        require(srcBalanceBefore > userSrcBalanceAfter);\n\n        outcome.userDeltaDestAmount = userDestBalanceAfter - destBalanceBefore;\n        outcome.userDeltaSrcAmount = srcBalanceBefore - userSrcBalanceAfter;\n\n        outcome.actualRate = calcRateFromQty(\n                outcome.userDeltaSrcAmount,\n                outcome.userDeltaDestAmount,\n                getDecimalsSafe(src),\n                getDecimalsSafe(dest)\n            );\n    }\n}\n",
  "sourcePath": "/Users/michaeljcohen/Desktop/projects/AgentFlip/contracts/KyberNetworkProxy.sol",
  "compiler": {
    "name": "solc",
    "version": "0.4.18+commit.9cf6e910.Emscripten.clang"
  },
  "schemaVersion": "3.0.2",
  "updatedAt": "2019-10-28T01:27:07.544Z",
  "devdoc": {
    "methods": {
      "claimAdmin()": {
        "details": "Allows the pendingAdmin address to finalize the change admin process."
      },
      "getBalance(address,address)": {
        "details": "get the balance of a user.",
        "params": {
          "token": "The token type"
        },
        "return": "The balance"
      },
      "swapEtherToToken(address,uint256)": {
        "details": "makes a trade from Ether to token. Sends token to msg sender",
        "params": {
          "minConversionRate": "The minimal conversion rate. If actual rate is lower, trade is canceled.",
          "token": "Destination token"
        },
        "return": "amount of actual dest tokens"
      },
      "swapTokenToEther(address,uint256,uint256)": {
        "details": "makes a trade from token to Ether, sends Ether to msg sender",
        "params": {
          "minConversionRate": "The minimal conversion rate. If actual rate is lower, trade is canceled.",
          "srcAmount": "amount of src tokens",
          "token": "Src token"
        },
        "return": "amount of actual dest tokens"
      },
      "swapTokenToToken(address,uint256,address,uint256)": {
        "details": "makes a trade between src and dest token and send dest tokens to msg sender",
        "params": {
          "dest": "Destination token",
          "minConversionRate": "The minimal conversion rate. If actual rate is lower, trade is canceled.",
          "src": "Src token",
          "srcAmount": "amount of src tokens"
        },
        "return": "amount of actual dest tokens"
      },
      "trade(address,uint256,address,address,uint256,uint256,address)": {
        "details": "makes a trade between src and dest token and send dest token to destAddress",
        "params": {
          "dest": "Destination token",
          "destAddress": "Address to send tokens to",
          "maxDestAmount": "A limit on the amount of dest tokens",
          "minConversionRate": "The minimal conversion rate. If actual rate is lower, trade is canceled.",
          "src": "Src token",
          "srcAmount": "amount of src tokens",
          "walletId": "is the wallet ID to send part of the fees"
        },
        "return": "amount of actual dest tokens"
      },
      "tradeWithHint(address,uint256,address,address,uint256,uint256,address,bytes)": {
        "details": "makes a trade between src and dest token and send dest token to destAddress",
        "params": {
          "dest": "Destination token",
          "destAddress": "Address to send tokens to",
          "hint": "will give hints for the trade.",
          "maxDestAmount": "A limit on the amount of dest tokens",
          "minConversionRate": "The minimal conversion rate. If actual rate is lower, trade is canceled.",
          "src": "Src token",
          "srcAmount": "amount of src tokens",
          "walletId": "is the wallet ID to send part of the fees"
        },
        "return": "amount of actual dest tokens"
      },
      "transferAdmin(address)": {
        "details": "Allows the current admin to set the pendingAdmin address.",
        "params": {
          "newAdmin": "The address to transfer ownership to."
        }
      },
      "transferAdminQuickly(address)": {
        "details": "Allows the current admin to set the admin in one tx. Useful initial deployment.",
        "params": {
          "newAdmin": "The address to transfer ownership to."
        }
      },
      "withdrawEther(uint256,address)": {
        "details": "Withdraw Ethers"
      },
      "withdrawToken(address,uint256,address)": {
        "details": "Withdraw all ERC20 compatible tokens",
        "params": {
          "token": "ERC20 The address of the token contract"
        }
      }
    },
    "title": "Kyber Network proxy for main contract"
  },
  "userdoc": {
    "methods": {
      "trade(address,uint256,address,address,uint256,uint256,address)": {
        "notice": "use token address ETH_TOKEN_ADDRESS for ether"
      },
      "tradeWithHint(address,uint256,address,address,uint256,uint256,address,bytes)": {
        "notice": "use token address ETH_TOKEN_ADDRESS for ether"
      }
    }
  }
}