{
  "contractName": "PermissionGroups",
  "abi": [
    {
      "constant": true,
      "inputs": [],
      "name": "pendingAdmin",
      "outputs": [
        {
          "name": "",
          "type": "address"
        }
      ],
      "payable": false,
      "stateMutability": "view",
      "type": "function"
    },
    {
      "constant": true,
      "inputs": [],
      "name": "admin",
      "outputs": [
        {
          "name": "",
          "type": "address"
        }
      ],
      "payable": false,
      "stateMutability": "view",
      "type": "function"
    },
    {
      "inputs": [],
      "payable": false,
      "stateMutability": "nonpayable",
      "type": "constructor"
    },
    {
      "anonymous": false,
      "inputs": [
        {
          "indexed": false,
          "name": "pendingAdmin",
          "type": "address"
        }
      ],
      "name": "TransferAdminPending",
      "type": "event"
    },
    {
      "anonymous": false,
      "inputs": [
        {
          "indexed": false,
          "name": "newAdmin",
          "type": "address"
        },
        {
          "indexed": false,
          "name": "previousAdmin",
          "type": "address"
        }
      ],
      "name": "AdminClaimed",
      "type": "event"
    },
    {
      "anonymous": false,
      "inputs": [
        {
          "indexed": false,
          "name": "newAlerter",
          "type": "address"
        },
        {
          "indexed": false,
          "name": "isAdd",
          "type": "bool"
        }
      ],
      "name": "AlerterAdded",
      "type": "event"
    },
    {
      "anonymous": false,
      "inputs": [
        {
          "indexed": false,
          "name": "newOperator",
          "type": "address"
        },
        {
          "indexed": false,
          "name": "isAdd",
          "type": "bool"
        }
      ],
      "name": "OperatorAdded",
      "type": "event"
    },
    {
      "constant": true,
      "inputs": [],
      "name": "getOperators",
      "outputs": [
        {
          "name": "",
          "type": "address[]"
        }
      ],
      "payable": false,
      "stateMutability": "view",
      "type": "function"
    },
    {
      "constant": true,
      "inputs": [],
      "name": "getAlerters",
      "outputs": [
        {
          "name": "",
          "type": "address[]"
        }
      ],
      "payable": false,
      "stateMutability": "view",
      "type": "function"
    },
    {
      "constant": false,
      "inputs": [
        {
          "name": "newAdmin",
          "type": "address"
        }
      ],
      "name": "transferAdmin",
      "outputs": [],
      "payable": false,
      "stateMutability": "nonpayable",
      "type": "function"
    },
    {
      "constant": false,
      "inputs": [
        {
          "name": "newAdmin",
          "type": "address"
        }
      ],
      "name": "transferAdminQuickly",
      "outputs": [],
      "payable": false,
      "stateMutability": "nonpayable",
      "type": "function"
    },
    {
      "constant": false,
      "inputs": [],
      "name": "claimAdmin",
      "outputs": [],
      "payable": false,
      "stateMutability": "nonpayable",
      "type": "function"
    },
    {
      "constant": false,
      "inputs": [
        {
          "name": "newAlerter",
          "type": "address"
        }
      ],
      "name": "addAlerter",
      "outputs": [],
      "payable": false,
      "stateMutability": "nonpayable",
      "type": "function"
    },
    {
      "constant": false,
      "inputs": [
        {
          "name": "alerter",
          "type": "address"
        }
      ],
      "name": "removeAlerter",
      "outputs": [],
      "payable": false,
      "stateMutability": "nonpayable",
      "type": "function"
    },
    {
      "constant": false,
      "inputs": [
        {
          "name": "newOperator",
          "type": "address"
        }
      ],
      "name": "addOperator",
      "outputs": [],
      "payable": false,
      "stateMutability": "nonpayable",
      "type": "function"
    },
    {
      "constant": false,
      "inputs": [
        {
          "name": "operator",
          "type": "address"
        }
      ],
      "name": "removeOperator",
      "outputs": [],
      "payable": false,
      "stateMutability": "nonpayable",
      "type": "function"
    }
  ],
  "bytecode": "0x6060604052341561000f57600080fd5b336000806101000a81548173ffffffffffffffffffffffffffffffffffffffff021916908373ffffffffffffffffffffffffffffffffffffffff1602179055506114718061005e6000396000f3006060604052600436106100af576000357c0100000000000000000000000000000000000000000000000000000000900463ffffffff16806301a12fd3146100b457806326782247146100ed57806327a099d814610142578063408ee7fe146101ac57806375829def146101e557806377f50f971461021e5780637acc8678146102335780637c423f541461026c5780639870d7fe146102d6578063ac8a584a1461030f578063f851a44014610348575b600080fd5b34156100bf57600080fd5b6100eb600480803573ffffffffffffffffffffffffffffffffffffffff1690602001909190505061039d565b005b34156100f857600080fd5b61010061065f565b604051808273ffffffffffffffffffffffffffffffffffffffff1673ffffffffffffffffffffffffffffffffffffffff16815260200191505060405180910390f35b341561014d57600080fd5b610155610685565b6040518080602001828103825283818151815260200191508051906020019060200280838360005b8381101561019857808201518184015260208101905061017d565b505050509050019250505060405180910390f35b34156101b757600080fd5b6101e3600480803573ffffffffffffffffffffffffffffffffffffffff16906020019091905050610719565b005b34156101f057600080fd5b61021c600480803573ffffffffffffffffffffffffffffffffffffffff1690602001909190505061090f565b005b341561022957600080fd5b610231610a6f565b005b341561023e57600080fd5b61026a600480803573ffffffffffffffffffffffffffffffffffffffff16906020019091905050610c4b565b005b341561027757600080fd5b61027f610e40565b6040518080602001828103825283818151815260200191508051906020019060200280838360005b838110156102c25780820151818401526020810190506102a7565b505050509050019250505060405180910390f35b34156102e157600080fd5b61030d600480803573ffffffffffffffffffffffffffffffffffffffff16906020019091905050610ed4565b005b341561031a57600080fd5b610346600480803573ffffffffffffffffffffffffffffffffffffffff169060200190919050506110ca565b005b341561035357600080fd5b61035b61138f565b604051808273ffffffffffffffffffffffffffffffffffffffff1673ffffffffffffffffffffffffffffffffffffffff16815260200191505060405180910390f35b60008060009054906101000a900473ffffffffffffffffffffffffffffffffffffffff1673ffffffffffffffffffffffffffffffffffffffff163373ffffffffffffffffffffffffffffffffffffffff161415156103fa57600080fd5b600360008373ffffffffffffffffffffffffffffffffffffffff1673ffffffffffffffffffffffffffffffffffffffff16815260200190815260200160002060009054906101000a900460ff16151561045257600080fd5b6000600360008473ffffffffffffffffffffffffffffffffffffffff1673ffffffffffffffffffffffffffffffffffffffff16815260200190815260200160002060006101000a81548160ff021916908315150217905550600090505b60058054905081101561065b578173ffffffffffffffffffffffffffffffffffffffff166005828154811015156104e257fe5b906000526020600020900160009054906101000a900473ffffffffffffffffffffffffffffffffffffffff1673ffffffffffffffffffffffffffffffffffffffff16141561065057600560016005805490500381548110151561054157fe5b906000526020600020900160009054906101000a900473ffffffffffffffffffffffffffffffffffffffff1660058281548110151561057c57fe5b906000526020600020900160006101000a81548173ffffffffffffffffffffffffffffffffffffffff021916908373ffffffffffffffffffffffffffffffffffffffff16021790555060058054809190600190036105da91906113b4565b507f5611bf3e417d124f97bf2c788843ea8bb502b66079fbee02158ef30b172cb762826000604051808373ffffffffffffffffffffffffffffffffffffffff1673ffffffffffffffffffffffffffffffffffffffff168152602001821515151581526020019250505060405180910390a161065b565b8060010190506104af565b5050565b600160009054906101000a900473ffffffffffffffffffffffffffffffffffffffff1681565b61068d6113e0565b600480548060200260200160405190810160405280929190818152602001828054801561070f57602002820191906000526020600020905b8160009054906101000a900473ffffffffffffffffffffffffffffffffffffffff1673ffffffffffffffffffffffffffffffffffffffff16815260200190600101908083116106c5575b5050505050905090565b6000809054906101000a900473ffffffffffffffffffffffffffffffffffffffff1673ffffffffffffffffffffffffffffffffffffffff163373ffffffffffffffffffffffffffffffffffffffff1614151561077457600080fd5b600360008273ffffffffffffffffffffffffffffffffffffffff1673ffffffffffffffffffffffffffffffffffffffff16815260200190815260200160002060009054906101000a900460ff161515156107cd57600080fd5b60326005805490501015156107e157600080fd5b7f5611bf3e417d124f97bf2c788843ea8bb502b66079fbee02158ef30b172cb762816001604051808373ffffffffffffffffffffffffffffffffffffffff1673ffffffffffffffffffffffffffffffffffffffff168152602001821515151581526020019250505060405180910390a16001600360008373ffffffffffffffffffffffffffffffffffffffff1673ffffffffffffffffffffffffffffffffffffffff16815260200190815260200160002060006101000a81548160ff021916908315150217905550600580548060010182816108bd91906113f4565b9160005260206000209001600083909190916101000a81548173ffffffffffffffffffffffffffffffffffffffff021916908373ffffffffffffffffffffffffffffffffffffffff1602179055505050565b6000809054906101000a900473ffffffffffffffffffffffffffffffffffffffff1673ffffffffffffffffffffffffffffffffffffffff163373ffffffffffffffffffffffffffffffffffffffff1614151561096a57600080fd5b600073ffffffffffffffffffffffffffffffffffffffff168173ffffffffffffffffffffffffffffffffffffffff16141515156109a657600080fd5b7f3b81caf78fa51ecbc8acb482fd7012a277b428d9b80f9d156e8a54107496cc40600160009054906101000a900473ffffffffffffffffffffffffffffffffffffffff16604051808273ffffffffffffffffffffffffffffffffffffffff1673ffffffffffffffffffffffffffffffffffffffff16815260200191505060405180910390a180600160006101000a81548173ffffffffffffffffffffffffffffffffffffffff021916908373ffffffffffffffffffffffffffffffffffffffff16021790555050565b3373ffffffffffffffffffffffffffffffffffffffff16600160009054906101000a900473ffffffffffffffffffffffffffffffffffffffff1673ffffffffffffffffffffffffffffffffffffffff16141515610acb57600080fd5b7f65da1cfc2c2e81576ad96afb24a581f8e109b7a403b35cbd3243a1c99efdb9ed600160009054906101000a900473ffffffffffffffffffffffffffffffffffffffff166000809054906101000a900473ffffffffffffffffffffffffffffffffffffffff16604051808373ffffffffffffffffffffffffffffffffffffffff1673ffffffffffffffffffffffffffffffffffffffff1681526020018273ffffffffffffffffffffffffffffffffffffffff1673ffffffffffffffffffffffffffffffffffffffff1681526020019250505060405180910390a1600160009054906101000a900473ffffffffffffffffffffffffffffffffffffffff166000806101000a81548173ffffffffffffffffffffffffffffffffffffffff021916908373ffffffffffffffffffffffffffffffffffffffff1602179055506000600160006101000a81548173ffffffffffffffffffffffffffffffffffffffff021916908373ffffffffffffffffffffffffffffffffffffffff160217905550565b6000809054906101000a900473ffffffffffffffffffffffffffffffffffffffff1673ffffffffffffffffffffffffffffffffffffffff163373ffffffffffffffffffffffffffffffffffffffff16141515610ca657600080fd5b600073ffffffffffffffffffffffffffffffffffffffff168173ffffffffffffffffffffffffffffffffffffffff1614151515610ce257600080fd5b7f3b81caf78fa51ecbc8acb482fd7012a277b428d9b80f9d156e8a54107496cc4081604051808273ffffffffffffffffffffffffffffffffffffffff1673ffffffffffffffffffffffffffffffffffffffff16815260200191505060405180910390a17f65da1cfc2c2e81576ad96afb24a581f8e109b7a403b35cbd3243a1c99efdb9ed816000809054906101000a900473ffffffffffffffffffffffffffffffffffffffff16604051808373ffffffffffffffffffffffffffffffffffffffff1673ffffffffffffffffffffffffffffffffffffffff1681526020018273ffffffffffffffffffffffffffffffffffffffff1673ffffffffffffffffffffffffffffffffffffffff1681526020019250505060405180910390a1806000806101000a81548173ffffffffffffffffffffffffffffffffffffffff021916908373ffffffffffffffffffffffffffffffffffffffff16021790555050565b610e486113e0565b6005805480602002602001604051908101604052809291908181526020018280548015610eca57602002820191906000526020600020905b8160009054906101000a900473ffffffffffffffffffffffffffffffffffffffff1673ffffffffffffffffffffffffffffffffffffffff1681526020019060010190808311610e80575b5050505050905090565b6000809054906101000a900473ffffffffffffffffffffffffffffffffffffffff1673ffffffffffffffffffffffffffffffffffffffff163373ffffffffffffffffffffffffffffffffffffffff16141515610f2f57600080fd5b600260008273ffffffffffffffffffffffffffffffffffffffff1673ffffffffffffffffffffffffffffffffffffffff16815260200190815260200160002060009054906101000a900460ff16151515610f8857600080fd5b6032600480549050101515610f9c57600080fd5b7f091a7a4b85135fdd7e8dbc18b12fabe5cc191ea867aa3c2e1a24a102af61d58b816001604051808373ffffffffffffffffffffffffffffffffffffffff1673ffffffffffffffffffffffffffffffffffffffff168152602001821515151581526020019250505060405180910390a16001600260008373ffffffffffffffffffffffffffffffffffffffff1673ffffffffffffffffffffffffffffffffffffffff16815260200190815260200160002060006101000a81548160ff0219169083151502179055506004805480600101828161107891906113f4565b9160005260206000209001600083909190916101000a81548173ffffffffffffffffffffffffffffffffffffffff021916908373ffffffffffffffffffffffffffffffffffffffff1602179055505050565b60008060009054906101000a900473ffffffffffffffffffffffffffffffffffffffff1673ffffffffffffffffffffffffffffffffffffffff163373ffffffffffffffffffffffffffffffffffffffff1614151561112757600080fd5b600260008373ffffffffffffffffffffffffffffffffffffffff1673ffffffffffffffffffffffffffffffffffffffff16815260200190815260200160002060009054906101000a900460ff16151561117f57600080fd5b6000600260008473ffffffffffffffffffffffffffffffffffffffff1673ffffffffffffffffffffffffffffffffffffffff16815260200190815260200160002060006101000a81548160ff021916908315150217905550600090505b60048054905081101561138b578173ffffffffffffffffffffffffffffffffffffffff1660048281548110151561120f57fe5b906000526020600020900160009054906101000a900473ffffffffffffffffffffffffffffffffffffffff1673ffffffffffffffffffffffffffffffffffffffff16141561138057600460016004805490500381548110151561126e57fe5b906000526020600020900160009054906101000a900473ffffffffffffffffffffffffffffffffffffffff166004828154811015156112a957fe5b906000526020600020900160006101000a81548173ffffffffffffffffffffffffffffffffffffffff021916908373ffffffffffffffffffffffffffffffffffffffff160217905550600160048181805490500391508161130a91906113b4565b507f091a7a4b85135fdd7e8dbc18b12fabe5cc191ea867aa3c2e1a24a102af61d58b826000604051808373ffffffffffffffffffffffffffffffffffffffff1673ffffffffffffffffffffffffffffffffffffffff168152602001821515151581526020019250505060405180910390a161138b565b8060010190506111dc565b5050565b6000809054906101000a900473ffffffffffffffffffffffffffffffffffffffff1681565b8154818355818115116113db578183600052602060002091820191016113da9190611420565b5b505050565b602060405190810160405280600081525090565b81548183558181151161141b5781836000526020600020918201910161141a9190611420565b5b505050565b61144291905b8082111561143e576000816000905550600101611426565b5090565b905600a165627a7a72305820aa0a49bc1bbfa98f95f3d92583c622c2f3794cc059caaac0c7265595335c738f0029",
  "source": "pragma solidity 0.4.18;\n\n\ncontract PermissionGroups {\n\n    address public admin;\n    address public pendingAdmin;\n    mapping(address=>bool) internal operators;\n    mapping(address=>bool) internal alerters;\n    address[] internal operatorsGroup;\n    address[] internal alertersGroup;\n    uint constant internal MAX_GROUP_SIZE = 50;\n\n    function PermissionGroups() public {\n        admin = msg.sender;\n    }\n\n    modifier onlyAdmin() {\n        require(msg.sender == admin);\n        _;\n    }\n\n    modifier onlyOperator() {\n        require(operators[msg.sender]);\n        _;\n    }\n\n    modifier onlyAlerter() {\n        require(alerters[msg.sender]);\n        _;\n    }\n\n    function getOperators () external view returns(address[]) {\n        return operatorsGroup;\n    }\n\n    function getAlerters () external view returns(address[]) {\n        return alertersGroup;\n    }\n\n    event TransferAdminPending(address pendingAdmin);\n\n    /**\n     * @dev Allows the current admin to set the pendingAdmin address.\n     * @param newAdmin The address to transfer ownership to.\n     */\n    function transferAdmin(address newAdmin) public onlyAdmin {\n        require(newAdmin != address(0));\n        TransferAdminPending(pendingAdmin);\n        pendingAdmin = newAdmin;\n    }\n\n    /**\n     * @dev Allows the current admin to set the admin in one tx. Useful initial deployment.\n     * @param newAdmin The address to transfer ownership to.\n     */\n    function transferAdminQuickly(address newAdmin) public onlyAdmin {\n        require(newAdmin != address(0));\n        TransferAdminPending(newAdmin);\n        AdminClaimed(newAdmin, admin);\n        admin = newAdmin;\n    }\n\n    event AdminClaimed( address newAdmin, address previousAdmin);\n\n    /**\n     * @dev Allows the pendingAdmin address to finalize the change admin process.\n     */\n    function claimAdmin() public {\n        require(pendingAdmin == msg.sender);\n        AdminClaimed(pendingAdmin, admin);\n        admin = pendingAdmin;\n        pendingAdmin = address(0);\n    }\n\n    event AlerterAdded (address newAlerter, bool isAdd);\n\n    function addAlerter(address newAlerter) public onlyAdmin {\n        require(!alerters[newAlerter]); // prevent duplicates.\n        require(alertersGroup.length < MAX_GROUP_SIZE);\n\n        AlerterAdded(newAlerter, true);\n        alerters[newAlerter] = true;\n        alertersGroup.push(newAlerter);\n    }\n\n    function removeAlerter (address alerter) public onlyAdmin {\n        require(alerters[alerter]);\n        alerters[alerter] = false;\n\n        for (uint i = 0; i < alertersGroup.length; ++i) {\n            if (alertersGroup[i] == alerter) {\n                alertersGroup[i] = alertersGroup[alertersGroup.length - 1];\n                alertersGroup.length--;\n                AlerterAdded(alerter, false);\n                break;\n            }\n        }\n    }\n\n    event OperatorAdded(address newOperator, bool isAdd);\n\n    function addOperator(address newOperator) public onlyAdmin {\n        require(!operators[newOperator]); // prevent duplicates.\n        require(operatorsGroup.length < MAX_GROUP_SIZE);\n\n        OperatorAdded(newOperator, true);\n        operators[newOperator] = true;\n        operatorsGroup.push(newOperator);\n    }\n\n    function removeOperator (address operator) public onlyAdmin {\n        require(operators[operator]);\n        operators[operator] = false;\n\n        for (uint i = 0; i < operatorsGroup.length; ++i) {\n            if (operatorsGroup[i] == operator) {\n                operatorsGroup[i] = operatorsGroup[operatorsGroup.length - 1];\n                operatorsGroup.length -= 1;\n                OperatorAdded(operator, false);\n                break;\n            }\n        }\n    }\n}\n",
  "sourcePath": "/Users/michaeljcohen/Desktop/projects/AgentFlip/contracts/PermissionGroups.sol",
  "compiler": {
    "name": "solc",
    "version": "0.4.18+commit.9cf6e910.Emscripten.clang"
  },
  "schemaVersion": "3.0.2",
  "updatedAt": "2019-10-25T01:41:26.853Z",
  "devdoc": {
    "methods": {
      "claimAdmin()": {
        "details": "Allows the pendingAdmin address to finalize the change admin process."
      },
      "transferAdmin(address)": {
        "details": "Allows the current admin to set the pendingAdmin address.",
        "params": {
          "newAdmin": "The address to transfer ownership to."
        }
      },
      "transferAdminQuickly(address)": {
        "details": "Allows the current admin to set the admin in one tx. Useful initial deployment.",
        "params": {
          "newAdmin": "The address to transfer ownership to."
        }
      }
    }
  },
  "userdoc": {
    "methods": {}
  }
}