{
  "contractName": "SafeDecimalMath",
  "abi": [
    {
      "constant": true,
      "inputs": [],
      "name": "decimals",
      "outputs": [
        {
          "name": "",
          "type": "uint8"
        }
      ],
      "payable": false,
      "stateMutability": "view",
      "type": "function"
    },
    {
      "constant": true,
      "inputs": [],
      "name": "PRECISE_UNIT",
      "outputs": [
        {
          "name": "",
          "type": "uint256"
        }
      ],
      "payable": false,
      "stateMutability": "view",
      "type": "function"
    },
    {
      "constant": true,
      "inputs": [],
      "name": "UNIT",
      "outputs": [
        {
          "name": "",
          "type": "uint256"
        }
      ],
      "payable": false,
      "stateMutability": "view",
      "type": "function"
    },
    {
      "constant": true,
      "inputs": [],
      "name": "highPrecisionDecimals",
      "outputs": [
        {
          "name": "",
          "type": "uint8"
        }
      ],
      "payable": false,
      "stateMutability": "view",
      "type": "function"
    },
    {
      "constant": true,
      "inputs": [],
      "name": "unit",
      "outputs": [
        {
          "name": "",
          "type": "uint256"
        }
      ],
      "payable": false,
      "stateMutability": "pure",
      "type": "function"
    },
    {
      "constant": true,
      "inputs": [],
      "name": "preciseUnit",
      "outputs": [
        {
          "name": "",
          "type": "uint256"
        }
      ],
      "payable": false,
      "stateMutability": "pure",
      "type": "function"
    }
  ],
  "bytecode": "0x6060604052341561000f57600080fd5b6101a78061001e6000396000f300606060405260043610610078576000357c0100000000000000000000000000000000000000000000000000000000900463ffffffff168063313ce5671461007d578063864029e7146100a1578063907af6c0146100bf5780639d8e2177146100dd578063d5e5e6e6146100fb578063def4419d14610119575b600080fd5b61008561013d565b604051808260ff1660ff16815260200191505060405180910390f35b6100a9610142565b6040518082815260200191505060405180910390f35b6100c761014d565b6040518082815260200191505060405180910390f35b6100e561015c565b6040518082815260200191505060405180910390f35b610103610167565b6040518082815260200191505060405180910390f35b610121610176565b604051808260ff1660ff16815260200191505060405180910390f35b601281565b601b60ff16600a0a81565b6000601260ff16600a0a905090565b601260ff16600a0a81565b6000601b60ff16600a0a905090565b601b815600a165627a7a72305820d4d657e97a18c9bbd1581f1c3028f9337537ddca6a271841610e24a012224f1f0029",
  "source": "/*\n\n-----------------------------------------------------------------\nFILE INFORMATION\n-----------------------------------------------------------------\n\nfile:       SafeDecimalMath.sol\nversion:    2.0\nauthor:     Kevin Brown\n            Gavin Conway\ndate:       2018-10-18\n\n-----------------------------------------------------------------\nMODULE DESCRIPTION\n-----------------------------------------------------------------\n\nA library providing safe mathematical operations for division and\nmultiplication with the capability to round or truncate the results\nto the nearest increment. Operations can return a standard precision\nor high precision decimal. High precision decimals are useful for\nexample when attempting to calculate percentages or fractions\naccurately.\n\n-----------------------------------------------------------------\n*/\n\npragma solidity 0.4.18;\n\n// import \"openzeppelin-solidity/contracts/math/SafeMath.sol\";\n\n/**\n * @dev Wrappers over Solidity's arithmetic operations with added overflow\n * checks.\n *\n * Arithmetic operations in Solidity wrap on overflow. This can easily result\n * in bugs, because programmers usually assume that an overflow raises an\n * error, which is the standard behavior in high level programming languages.\n * `SafeMath` restores this intuition by reverting the transaction when an\n * operation overflows.\n *\n * Using this library instead of the unchecked operations eliminates an entire\n * class of bugs, so it's recommended to use it always.\n */\nlibrary SafeMath {\n    /**\n     * @dev Returns the subtraction of two unsigned integers, reverting on\n     * overflow (when the result is negative).\n     *\n     * Counterpart to Solidity's `-` operator.\n     *\n     * Requirements:\n     * - Subtraction cannot overflow.\n     */\n    function sub(uint256 a, uint256 b) internal pure returns (uint256) {\n        return sub(a, b, \"SafeMath: subtraction overflow\");\n    }\n\n    /**\n     * @dev Returns the subtraction of two unsigned integers, reverting with custom message on\n     * overflow (when the result is negative).\n     *\n     * Counterpart to Solidity's `-` operator.\n     *\n     * Requirements:\n     * - Subtraction cannot overflow.\n     *\n     * NOTE: This is a feature of the next version of OpenZeppelin Contracts.\n     * @dev Get it via `npm install @openzeppelin/contracts@next`.\n     */\n    function sub(uint256 a, uint256 b, string memory errorMessage) internal pure returns (uint256) {\n        require(b <= a);\n        uint256 c = a - b;\n\n        return c;\n    }\n\n    /**\n     * @dev Returns the multiplication of two unsigned integers, reverting on\n     * overflow.\n     *\n     * Counterpart to Solidity's `*` operator.\n     *\n     * Requirements:\n     * - Multiplication cannot overflow.\n     */\n    function mul(uint256 a, uint256 b) internal pure returns (uint256) {\n        // Gas optimization: this is cheaper than requiring 'a' not being zero, but the\n        // benefit is lost if 'b' is also tested.\n        // See: https://github.com/OpenZeppelin/openzeppelin-contracts/pull/522\n        if (a == 0) {\n            return 0;\n        }\n\n        uint256 c = a * b;\n        require(c / a == b);\n\n        return c;\n    }\n\n    /**\n     * @dev Returns the integer division of two unsigned integers. Reverts on\n     * division by zero. The result is rounded towards zero.\n     *\n     * Counterpart to Solidity's `/` operator. Note: this function uses a\n     * `revert` opcode (which leaves remaining gas untouched) while Solidity\n     * uses an invalid opcode to revert (consuming all remaining gas).\n     *\n     * Requirements:\n     * - The divisor cannot be zero.\n     */\n    function div(uint256 a, uint256 b) internal pure returns (uint256) {\n        return div(a, b, \"SafeMath: division by zero\");\n    }\n\n    /**\n     * @dev Returns the integer division of two unsigned integers. Reverts with custom message on\n     * division by zero. The result is rounded towards zero.\n     *\n     * Counterpart to Solidity's `/` operator. Note: this function uses a\n     * `revert` opcode (which leaves remaining gas untouched) while Solidity\n     * uses an invalid opcode to revert (consuming all remaining gas).\n     *\n     * Requirements:\n     * - The divisor cannot be zero.\n     * NOTE: This is a feature of the next version of OpenZeppelin Contracts.\n     * @dev Get it via `npm install @openzeppelin/contracts@next`.\n     */\n    function div(uint256 a, uint256 b, string memory errorMessage) internal pure returns (uint256) {\n        // Solidity only automatically asserts when dividing by 0\n        require(b > 0);\n        uint256 c = a / b;\n        // assert(a == b * c + a % b); // There is no case in which this doesn't hold\n\n        return c;\n    }\n\n    /**\n     * @dev Returns the remainder of dividing two unsigned integers. (unsigned integer modulo),\n     * Reverts when dividing by zero.\n     *\n     * Counterpart to Solidity's `%` operator. This function uses a `revert`\n     * opcode (which leaves remaining gas untouched) while Solidity uses an\n     * invalid opcode to revert (consuming all remaining gas).\n     *\n     * Requirements:\n     * - The divisor cannot be zero.\n     */\n    function mod(uint256 a, uint256 b) internal pure returns (uint256) {\n        return mod(a, b, \"SafeMath: modulo by zero\");\n    }\n\n    /**\n     * @dev Returns the remainder of dividing two unsigned integers. (unsigned integer modulo),\n     * Reverts with custom message when dividing by zero.\n     *\n     * Counterpart to Solidity's `%` operator. This function uses a `revert`\n     * opcode (which leaves remaining gas untouched) while Solidity uses an\n     * invalid opcode to revert (consuming all remaining gas).\n     *\n     * Requirements:\n     * - The divisor cannot be zero.\n     *\n     * NOTE: This is a feature of the next version of OpenZeppelin Contracts.\n     * @dev Get it via `npm install @openzeppelin/contracts@next`.\n     */\n    function mod(uint256 a, uint256 b, string memory errorMessage) internal pure returns (uint256) {\n        require(b != 0);\n        return a % b;\n    }\n}\n\n/**\n * @title Safely manipulate unsigned fixed-point decimals at a given precision level.\n * @dev Functions accepting uints in this contract and derived contracts\n * are taken to be such fixed point decimals of a specified precision (either standard\n * or high).\n */\nlibrary SafeDecimalMath {\n\n    using SafeMath for uint;\n\n    /* Number of decimal places in the representations. */\n    uint8 public constant decimals = 18;\n    uint8 public constant highPrecisionDecimals = 27;\n\n    /* The number representing 1.0. */\n    uint public constant UNIT = 10 ** uint(decimals);\n\n    /* The number representing 1.0 for higher fidelity numbers. */\n    uint public constant PRECISE_UNIT = 10 ** uint(highPrecisionDecimals);\n    uint private constant UNIT_TO_HIGH_PRECISION_CONVERSION_FACTOR = 10 ** uint(highPrecisionDecimals - decimals);\n\n    /** \n     * @return Provides an interface to UNIT.\n     */\n    function unit()\n        external\n        pure\n        returns (uint)\n    {\n        return UNIT;\n    }\n\n    /** \n     * @return Provides an interface to PRECISE_UNIT.\n     */\n    function preciseUnit()\n        external\n        pure \n        returns (uint)\n    {\n        return PRECISE_UNIT;\n    }\n\n    /**\n     * @return The result of multiplying x and y, interpreting the operands as fixed-point\n     * decimals.\n     * \n     * @dev A unit factor is divided out after the product of x and y is evaluated,\n     * so that product must be less than 2**256. As this is an integer division,\n     * the internal division always rounds down. This helps save on gas. Rounding\n     * is more expensive on gas.\n     */\n    function multiplyDecimal(uint x, uint y)\n        internal\n        pure\n        returns (uint)\n    {\n        /* Divide by UNIT to remove the extra factor introduced by the product. */\n        return x.mul(y) / UNIT;\n    }\n\n    /**\n     * @return The result of safely multiplying x and y, interpreting the operands\n     * as fixed-point decimals of the specified precision unit.\n     *\n     * @dev The operands should be in the form of a the specified unit factor which will be\n     * divided out after the product of x and y is evaluated, so that product must be\n     * less than 2**256.\n     *\n     * Unlike multiplyDecimal, this function rounds the result to the nearest increment.\n     * Rounding is useful when you need to retain fidelity for small decimal numbers\n     * (eg. small fractions or percentages).\n     */\n    function _multiplyDecimalRound(uint x, uint y, uint precisionUnit)\n        private\n        pure\n        returns (uint)\n    {\n        /* Divide by UNIT to remove the extra factor introduced by the product. */\n        uint quotientTimesTen = x.mul(y) / (precisionUnit / 10);\n\n        if (quotientTimesTen % 10 >= 5) {\n            quotientTimesTen += 10;\n        }\n\n        return quotientTimesTen / 10;\n    }\n\n    /**\n     * @return The result of safely multiplying x and y, interpreting the operands\n     * as fixed-point decimals of a precise unit.\n     *\n     * @dev The operands should be in the precise unit factor which will be\n     * divided out after the product of x and y is evaluated, so that product must be\n     * less than 2**256.\n     *\n     * Unlike multiplyDecimal, this function rounds the result to the nearest increment.\n     * Rounding is useful when you need to retain fidelity for small decimal numbers\n     * (eg. small fractions or percentages).\n     */\n    function multiplyDecimalRoundPrecise(uint x, uint y)\n        internal\n        pure\n        returns (uint)\n    {\n        return _multiplyDecimalRound(x, y, PRECISE_UNIT);\n    }\n\n    /**\n     * @return The result of safely multiplying x and y, interpreting the operands\n     * as fixed-point decimals of a standard unit.\n     *\n     * @dev The operands should be in the standard unit factor which will be\n     * divided out after the product of x and y is evaluated, so that product must be\n     * less than 2**256.\n     *\n     * Unlike multiplyDecimal, this function rounds the result to the nearest increment.\n     * Rounding is useful when you need to retain fidelity for small decimal numbers\n     * (eg. small fractions or percentages).\n     */\n    function multiplyDecimalRound(uint x, uint y)\n        internal\n        pure\n        returns (uint)\n    {\n        return _multiplyDecimalRound(x, y, UNIT);\n    }\n\n    /**\n     * @return The result of safely dividing x and y. The return value is a high\n     * precision decimal.\n     * \n     * @dev y is divided after the product of x and the standard precision unit\n     * is evaluated, so the product of x and UNIT must be less than 2**256. As\n     * this is an integer division, the result is always rounded down.\n     * This helps save on gas. Rounding is more expensive on gas.\n     */\n    function divideDecimal(uint x, uint y)\n        internal\n        pure\n        returns (uint)\n    {\n        /* Reintroduce the UNIT factor that will be divided out by y. */\n        return x.mul(UNIT).div(y);\n    }\n\n    /**\n     * @return The result of safely dividing x and y. The return value is as a rounded\n     * decimal in the precision unit specified in the parameter.\n     *\n     * @dev y is divided after the product of x and the specified precision unit\n     * is evaluated, so the product of x and the specified precision unit must\n     * be less than 2**256. The result is rounded to the nearest increment.\n     */\n    function _divideDecimalRound(uint x, uint y, uint precisionUnit)\n        private\n        pure\n        returns (uint)\n    {\n        uint resultTimesTen = x.mul(precisionUnit * 10).div(y);\n\n        if (resultTimesTen % 10 >= 5) {\n            resultTimesTen += 10;\n        }\n\n        return resultTimesTen / 10;\n    }\n\n    /**\n     * @return The result of safely dividing x and y. The return value is as a rounded\n     * standard precision decimal.\n     *\n     * @dev y is divided after the product of x and the standard precision unit\n     * is evaluated, so the product of x and the standard precision unit must\n     * be less than 2**256. The result is rounded to the nearest increment.\n     */\n    function divideDecimalRound(uint x, uint y)\n        internal\n        pure\n        returns (uint)\n    {\n        return _divideDecimalRound(x, y, UNIT);\n    }\n\n    /**\n     * @return The result of safely dividing x and y. The return value is as a rounded\n     * high precision decimal.\n     *\n     * @dev y is divided after the product of x and the high precision unit\n     * is evaluated, so the product of x and the high precision unit must\n     * be less than 2**256. The result is rounded to the nearest increment.\n     */\n    function divideDecimalRoundPrecise(uint x, uint y)\n        internal\n        pure\n        returns (uint)\n    {\n        return _divideDecimalRound(x, y, PRECISE_UNIT);\n    }\n\n    /**\n     * @dev Convert a standard decimal representation to a high precision one.\n     */\n    function decimalToPreciseDecimal(uint i)\n        internal\n        pure\n        returns (uint)\n    {\n        return i.mul(UNIT_TO_HIGH_PRECISION_CONVERSION_FACTOR);\n    }\n\n    /**\n     * @dev Convert a high precision decimal to a standard decimal representation.\n     */\n    function preciseDecimalToDecimal(uint i)\n        internal\n        pure\n        returns (uint)\n    {\n        uint quotientTimesTen = i / (UNIT_TO_HIGH_PRECISION_CONVERSION_FACTOR / 10);\n\n        if (quotientTimesTen % 10 >= 5) {\n            quotientTimesTen += 10;\n        }\n\n        return quotientTimesTen / 10;\n    }\n\n}",
  "sourcePath": "/Users/michaeljcohen/Desktop/projects/AgentFlip/contracts/SafeDecimalMath.sol",
  "compiler": {
    "name": "solc",
    "version": "0.4.18+commit.9cf6e910.Emscripten.clang"
  },
  "schemaVersion": "3.0.2",
  "updatedAt": "2019-10-28T01:27:07.531Z",
  "devdoc": {
    "methods": {
      "preciseUnit()": {
        "return": "Provides an interface to PRECISE_UNIT."
      },
      "unit()": {
        "return": "Provides an interface to UNIT."
      }
    },
    "title": "Safely manipulate unsigned fixed-point decimals at a given precision level."
  },
  "userdoc": {
    "methods": {}
  }
}