{
  "contractName": "Utils2",
  "abi": [
    {
      "constant": true,
      "inputs": [
        {
          "name": "token",
          "type": "address"
        },
        {
          "name": "user",
          "type": "address"
        }
      ],
      "name": "getBalance",
      "outputs": [
        {
          "name": "",
          "type": "uint256"
        }
      ],
      "payable": false,
      "stateMutability": "view",
      "type": "function"
    }
  ],
  "bytecode": "0x6060604052341561000f57600080fd5b61020e8061001e6000396000f300606060405260043610610041576000357c0100000000000000000000000000000000000000000000000000000000900463ffffffff168063d4fac45d14610046575b600080fd5b341561005157600080fd5b61009c600480803573ffffffffffffffffffffffffffffffffffffffff1690602001909190803573ffffffffffffffffffffffffffffffffffffffff169060200190919050506100b2565b6040518082815260200191505060405180910390f35b600073eeeeeeeeeeeeeeeeeeeeeeeeeeeeeeeeeeeeeeee73ffffffffffffffffffffffffffffffffffffffff168373ffffffffffffffffffffffffffffffffffffffff16141561011b578173ffffffffffffffffffffffffffffffffffffffff163190506101dc565b8273ffffffffffffffffffffffffffffffffffffffff166370a08231836000604051602001526040518263ffffffff167c0100000000000000000000000000000000000000000000000000000000028152600401808273ffffffffffffffffffffffffffffffffffffffff1673ffffffffffffffffffffffffffffffffffffffff168152602001915050602060405180830381600087803b15156101be57600080fd5b6102c65a03f115156101cf57600080fd5b5050506040518051905090505b929150505600a165627a7a72305820d177639541ab060f42f0f768695f1b54a8ceb0a9e84135f3fbf32abef27ed1470029",
  "source": "pragma solidity 0.4.18;\n\n\nimport \"./Utils.sol\";\n\n\ncontract Utils2 is Utils {\n\n    /// @dev get the balance of a user.\n    /// @param token The token type\n    /// @return The balance\n    function getBalance(ERC20 token, address user) public view returns(uint) {\n        if (token == ETH_TOKEN_ADDRESS)\n            return user.balance;\n        else\n            return token.balanceOf(user);\n    }\n\n    function getDecimalsSafe(ERC20 token) internal returns(uint) {\n\n        if (decimals[token] == 0) {\n            setDecimals(token);\n        }\n\n        return decimals[token];\n    }\n\n    function calcDestAmount(ERC20 src, ERC20 dest, uint srcAmount, uint rate) internal view returns(uint) {\n        return calcDstQty(srcAmount, getDecimals(src), getDecimals(dest), rate);\n    }\n\n    function calcSrcAmount(ERC20 src, ERC20 dest, uint destAmount, uint rate) internal view returns(uint) {\n        return calcSrcQty(destAmount, getDecimals(src), getDecimals(dest), rate);\n    }\n\n    function calcRateFromQty(uint srcAmount, uint destAmount, uint srcDecimals, uint dstDecimals)\n        internal pure returns(uint)\n    {\n        require(srcAmount <= MAX_QTY);\n        require(destAmount <= MAX_QTY);\n\n        if (dstDecimals >= srcDecimals) {\n            require((dstDecimals - srcDecimals) <= MAX_DECIMALS);\n            return (destAmount * PRECISION / ((10 ** (dstDecimals - srcDecimals)) * srcAmount));\n        } else {\n            require((srcDecimals - dstDecimals) <= MAX_DECIMALS);\n            return (destAmount * PRECISION * (10 ** (srcDecimals - dstDecimals)) / srcAmount);\n        }\n    }\n}\n",
  "sourcePath": "/Users/michaeljcohen/Desktop/projects/AgentFlip/contracts/Utils2.sol",
  "compiler": {
    "name": "solc",
    "version": "0.4.18+commit.9cf6e910.Emscripten.clang"
  },
  "schemaVersion": "3.0.2",
  "updatedAt": "2019-10-27T20:48:45.339Z",
  "devdoc": {
    "methods": {
      "getBalance(address,address)": {
        "details": "get the balance of a user.",
        "params": {
          "token": "The token type"
        },
        "return": "The balance"
      }
    }
  },
  "userdoc": {
    "methods": {}
  }
}