{
  "contractName": "AgentFlip",
  "abi": [
    {
      "constant": true,
      "inputs": [],
      "name": "sethERC20",
      "outputs": [
        {
          "name": "",
          "type": "address"
        }
      ],
      "payable": false,
      "stateMutability": "view",
      "type": "function",
      "signature": "0x02254481"
    },
    {
      "constant": true,
      "inputs": [],
      "name": "decimals",
      "outputs": [
        {
          "name": "",
          "type": "uint8"
        }
      ],
      "payable": false,
      "stateMutability": "view",
      "type": "function",
      "signature": "0x313ce567"
    },
    {
      "constant": true,
      "inputs": [],
      "name": "proxySynthetix",
      "outputs": [
        {
          "name": "",
          "type": "address"
        }
      ],
      "payable": false,
      "stateMutability": "view",
      "type": "function",
      "signature": "0x3a6854ae"
    },
    {
      "constant": true,
      "inputs": [],
      "name": "feePoolAddress",
      "outputs": [
        {
          "name": "",
          "type": "address"
        }
      ],
      "payable": false,
      "stateMutability": "view",
      "type": "function",
      "signature": "0x4319ebe4"
    },
    {
      "constant": true,
      "inputs": [],
      "name": "exchangeRates",
      "outputs": [
        {
          "name": "",
          "type": "address"
        }
      ],
      "payable": false,
      "stateMutability": "view",
      "type": "function",
      "signature": "0x4ffcd9df"
    },
    {
      "constant": true,
      "inputs": [],
      "name": "SynthetixProxyContract",
      "outputs": [
        {
          "name": "",
          "type": "address"
        }
      ],
      "payable": false,
      "stateMutability": "view",
      "type": "function",
      "signature": "0x6227752f"
    },
    {
      "constant": true,
      "inputs": [],
      "name": "kyberNetworkProxyContract",
      "outputs": [
        {
          "name": "",
          "type": "address"
        }
      ],
      "payable": false,
      "stateMutability": "view",
      "type": "function",
      "signature": "0x785250da"
    },
    {
      "constant": true,
      "inputs": [],
      "name": "uniswapSethExchange",
      "outputs": [
        {
          "name": "",
          "type": "address"
        }
      ],
      "payable": false,
      "stateMutability": "view",
      "type": "function",
      "signature": "0x87d50dc5"
    },
    {
      "constant": true,
      "inputs": [],
      "name": "UNIT",
      "outputs": [
        {
          "name": "",
          "type": "uint256"
        }
      ],
      "payable": false,
      "stateMutability": "view",
      "type": "function",
      "signature": "0x9d8e2177"
    },
    {
      "constant": true,
      "inputs": [],
      "name": "proxySbtc",
      "outputs": [
        {
          "name": "",
          "type": "address"
        }
      ],
      "payable": false,
      "stateMutability": "view",
      "type": "function",
      "signature": "0xb5d19b15"
    },
    {
      "inputs": [
        {
          "name": "_kyberNetworkProxyContract",
          "type": "address"
        }
      ],
      "payable": false,
      "stateMutability": "nonpayable",
      "type": "constructor",
      "signature": "constructor"
    },
    {
      "anonymous": false,
      "inputs": [
        {
          "indexed": true,
          "name": "sender",
          "type": "address"
        },
        {
          "indexed": false,
          "name": "srcToken",
          "type": "address"
        },
        {
          "indexed": false,
          "name": "destToken",
          "type": "address"
        }
      ],
      "name": "Swap",
      "type": "event",
      "signature": "0x11f4b7a3b533a03660188385e81861fb044615f4dafe593932037df7b7836ecd"
    },
    {
      "constant": true,
      "inputs": [
        {
          "name": "srcToken",
          "type": "address"
        },
        {
          "name": "srcQty",
          "type": "uint256"
        },
        {
          "name": "destToken",
          "type": "address"
        }
      ],
      "name": "getConversionRates",
      "outputs": [
        {
          "name": "",
          "type": "uint256"
        },
        {
          "name": "",
          "type": "uint256"
        }
      ],
      "payable": false,
      "stateMutability": "view",
      "type": "function",
      "signature": "0x0aea8188"
    },
    {
      "constant": false,
      "inputs": [
        {
          "name": "srcToken",
          "type": "address"
        },
        {
          "name": "srcQty",
          "type": "uint256"
        },
        {
          "name": "destToken",
          "type": "address"
        },
        {
          "name": "destAddress",
          "type": "address"
        },
        {
          "name": "maxDestAmount",
          "type": "uint256"
        }
      ],
      "name": "executeSwap",
      "outputs": [],
      "payable": false,
      "stateMutability": "nonpayable",
      "type": "function",
      "signature": "0x685b2bcc"
    },
    {
      "constant": false,
      "inputs": [
        {
          "name": "deadline",
          "type": "uint256"
        }
      ],
      "name": "swapEthForSbtc",
      "outputs": [
        {
          "name": "receivedAmt",
          "type": "uint256"
        }
      ],
      "payable": true,
      "stateMutability": "payable",
      "type": "function",
      "signature": "0x26cc8831"
    }
  ],
  "bytecode": "0x606060405273013ae307648f529aa72c5767a334ddd37aab43c3600260006101000a81548173ffffffffffffffffffffffffffffffffffffffff021916908373ffffffffffffffffffffffffffffffffffffffff160217905550739196c28e45c02c05d056309e2eebd48095fac24e600360006101000a81548173ffffffffffffffffffffffffffffffffffffffff021916908373ffffffffffffffffffffffffffffffffffffffff160217905550730b7e1dc538e1a8db415ab1d4c5107325dd4bd705600460006101000a81548173ffffffffffffffffffffffffffffffffffffffff021916908373ffffffffffffffffffffffffffffffffffffffff1602179055507322f1ba6db6ca0a065e1b7eae6fc22b7e675310ef600560006101000a81548173ffffffffffffffffffffffffffffffffffffffff021916908373ffffffffffffffffffffffffffffffffffffffff16021790555073c1701abd559fc263829ca3917d03045f95b5224a600660006101000a81548173ffffffffffffffffffffffffffffffffffffffff021916908373ffffffffffffffffffffffffffffffffffffffff160217905550730df1b6d92febca3b2793afa3649868991cc4901d600760006101000a81548173ffffffffffffffffffffffffffffffffffffffff021916908373ffffffffffffffffffffffffffffffffffffffff1602179055507f73455448000000000000000000000000000000000000000000000000000000006008906000191690557f7342544300000000000000000000000000000000000000000000000000000000600990600019169055341561026157600080fd5b6040516020806116e283398101604052808051906020019091905050806000806101000a81548173ffffffffffffffffffffffffffffffffffffffff021916908373ffffffffffffffffffffffffffffffffffffffff16021790555050611415806102cd6000396000f3006060604052600436106100c5576000357c0100000000000000000000000000000000000000000000000000000000900463ffffffff16806302254481146100ca5780630aea81881461011f57806326cc88311461019b578063313ce567146101c75780633a6854ae146101f65780634319ebe41461024b5780634ffcd9df146102a05780636227752f146102f5578063685b2bcc1461034a578063785250da146103d357806387d50dc5146104285780639d8e21771461047d578063b5d19b15146104a6575b600080fd5b34156100d557600080fd5b6100dd6104fb565b604051808273ffffffffffffffffffffffffffffffffffffffff1673ffffffffffffffffffffffffffffffffffffffff16815260200191505060405180910390f35b341561012a57600080fd5b61017e600480803573ffffffffffffffffffffffffffffffffffffffff1690602001909190803590602001909190803573ffffffffffffffffffffffffffffffffffffffff16906020019091905050610521565b604051808381526020018281526020019250505060405180910390f35b6101b16004808035906020019091905050610650565b6040518082815260200191505060405180910390f35b34156101d257600080fd5b6101da610a4c565b604051808260ff1660ff16815260200191505060405180910390f35b341561020157600080fd5b610209610a51565b604051808273ffffffffffffffffffffffffffffffffffffffff1673ffffffffffffffffffffffffffffffffffffffff16815260200191505060405180910390f35b341561025657600080fd5b61025e610a77565b604051808273ffffffffffffffffffffffffffffffffffffffff1673ffffffffffffffffffffffffffffffffffffffff16815260200191505060405180910390f35b34156102ab57600080fd5b6102b3610a9d565b604051808273ffffffffffffffffffffffffffffffffffffffff1673ffffffffffffffffffffffffffffffffffffffff16815260200191505060405180910390f35b341561030057600080fd5b610308610ac3565b604051808273ffffffffffffffffffffffffffffffffffffffff1673ffffffffffffffffffffffffffffffffffffffff16815260200191505060405180910390f35b341561035557600080fd5b6103d1600480803573ffffffffffffffffffffffffffffffffffffffff1690602001909190803590602001909190803573ffffffffffffffffffffffffffffffffffffffff1690602001909190803573ffffffffffffffffffffffffffffffffffffffff16906020019091908035906020019091905050610ae9565b005b34156103de57600080fd5b6103e661112d565b604051808273ffffffffffffffffffffffffffffffffffffffff1673ffffffffffffffffffffffffffffffffffffffff16815260200191505060405180910390f35b341561043357600080fd5b61043b611152565b604051808273ffffffffffffffffffffffffffffffffffffffff1673ffffffffffffffffffffffffffffffffffffffff16815260200191505060405180910390f35b341561048857600080fd5b610490611178565b6040518082815260200191505060405180910390f35b34156104b157600080fd5b6104b9611183565b604051808273ffffffffffffffffffffffffffffffffffffffff1673ffffffffffffffffffffffffffffffffffffffff16815260200191505060405180910390f35b600760009054906101000a900473ffffffffffffffffffffffffffffffffffffffff1681565b6000806000809054906101000a900473ffffffffffffffffffffffffffffffffffffffff1673ffffffffffffffffffffffffffffffffffffffff1663809a9e558685876000604051604001526040518463ffffffff167c0100000000000000000000000000000000000000000000000000000000028152600401808473ffffffffffffffffffffffffffffffffffffffff1673ffffffffffffffffffffffffffffffffffffffff1681526020018373ffffffffffffffffffffffffffffffffffffffff1673ffffffffffffffffffffffffffffffffffffffff16815260200182815260200193505050506040805180830381600087803b151561062357600080fd5b6102c65a03f1151561063457600080fd5b5050506040518051906020018051905091509150935093915050565b600080600080600360009054906101000a900473ffffffffffffffffffffffffffffffffffffffff169250600760009054906101000a900473ffffffffffffffffffffffffffffffffffffffff1673ffffffffffffffffffffffffffffffffffffffff1663095ea7b3600360009054906101000a900473ffffffffffffffffffffffffffffffffffffffff166000196000604051602001526040518363ffffffff167c0100000000000000000000000000000000000000000000000000000000028152600401808373ffffffffffffffffffffffffffffffffffffffff1673ffffffffffffffffffffffffffffffffffffffff16815260200182815260200192505050602060405180830381600087803b151561076c57600080fd5b6102c65a03f1151561077d57600080fd5b5050506040518051905050600260009054906101000a900473ffffffffffffffffffffffffffffffffffffffff1691508273ffffffffffffffffffffffffffffffffffffffff1663f39b5b9b346001886000604051602001526040518463ffffffff167c010000000000000000000000000000000000000000000000000000000002815260040180838152602001828152602001925050506020604051808303818588803b151561082d57600080fd5b6125ee5a03f1151561083e57600080fd5b5050505060405180519050905061085a816008546009546111a9565b93508173ffffffffffffffffffffffffffffffffffffffff16631aa6adf760085483600954306000604051602001526040518563ffffffff167c010000000000000000000000000000000000000000000000000000000002815260040180856000191660001916815260200184815260200183600019166000191681526020018273ffffffffffffffffffffffffffffffffffffffff1673ffffffffffffffffffffffffffffffffffffffff168152602001945050505050602060405180830381600087803b151561092b57600080fd5b6102c65a03f1151561093c57600080fd5b50505060405180519050151561095157600080fd5b600660009054906101000a900473ffffffffffffffffffffffffffffffffffffffff1673ffffffffffffffffffffffffffffffffffffffff1663a9059cbb33866000604051602001526040518363ffffffff167c0100000000000000000000000000000000000000000000000000000000028152600401808373ffffffffffffffffffffffffffffffffffffffff1673ffffffffffffffffffffffffffffffffffffffff16815260200182815260200192505050602060405180830381600087803b1515610a1e57600080fd5b6102c65a03f11515610a2f57600080fd5b505050604051805190501515610a4457600080fd5b505050919050565b601281565b600260009054906101000a900473ffffffffffffffffffffffffffffffffffffffff1681565b600460009054906101000a900473ffffffffffffffffffffffffffffffffffffffff1681565b600560009054906101000a900473ffffffffffffffffffffffffffffffffffffffff1681565b600160009054906101000a900473ffffffffffffffffffffffffffffffffffffffff1681565b60008573ffffffffffffffffffffffffffffffffffffffff166323b872dd3330886000604051602001526040518463ffffffff167c0100000000000000000000000000000000000000000000000000000000028152600401808473ffffffffffffffffffffffffffffffffffffffff1673ffffffffffffffffffffffffffffffffffffffff1681526020018373ffffffffffffffffffffffffffffffffffffffff1673ffffffffffffffffffffffffffffffffffffffff1681526020018281526020019350505050602060405180830381600087803b1515610bca57600080fd5b6102c65a03f11515610bdb57600080fd5b505050604051805190501515610bf057600080fd5b8573ffffffffffffffffffffffffffffffffffffffff1663095ea7b36000809054906101000a900473ffffffffffffffffffffffffffffffffffffffff16600080604051602001526040518363ffffffff167c0100000000000000000000000000000000000000000000000000000000028152600401808373ffffffffffffffffffffffffffffffffffffffff1673ffffffffffffffffffffffffffffffffffffffff16815260200182815260200192505050602060405180830381600087803b1515610cbc57600080fd5b6102c65a03f11515610ccd57600080fd5b505050604051805190501515610ce257600080fd5b8573ffffffffffffffffffffffffffffffffffffffff1663095ea7b36000809054906101000a900473ffffffffffffffffffffffffffffffffffffffff16876000604051602001526040518363ffffffff167c0100000000000000000000000000000000000000000000000000000000028152600401808373ffffffffffffffffffffffffffffffffffffffff1673ffffffffffffffffffffffffffffffffffffffff16815260200182815260200192505050602060405180830381600087803b1515610dae57600080fd5b6102c65a03f11515610dbf57600080fd5b505050604051805190501515610dd457600080fd5b6000809054906101000a900473ffffffffffffffffffffffffffffffffffffffff1673ffffffffffffffffffffffffffffffffffffffff1663809a9e558786886000604051604001526040518463ffffffff167c0100000000000000000000000000000000000000000000000000000000028152600401808473ffffffffffffffffffffffffffffffffffffffff1673ffffffffffffffffffffffffffffffffffffffff1681526020018373ffffffffffffffffffffffffffffffffffffffff1673ffffffffffffffffffffffffffffffffffffffff16815260200182815260200193505050506040805180830381600087803b1515610ed357600080fd5b6102c65a03f11515610ee457600080fd5b5050506040518051906020018051905050809150506000809054906101000a900473ffffffffffffffffffffffffffffffffffffffff1673ffffffffffffffffffffffffffffffffffffffff1663cb3c28c7878787878787600080604051602001526040518863ffffffff167c0100000000000000000000000000000000000000000000000000000000028152600401808873ffffffffffffffffffffffffffffffffffffffff1673ffffffffffffffffffffffffffffffffffffffff1681526020018781526020018673ffffffffffffffffffffffffffffffffffffffff1673ffffffffffffffffffffffffffffffffffffffff1681526020018573ffffffffffffffffffffffffffffffffffffffff1673ffffffffffffffffffffffffffffffffffffffff1681526020018481526020018381526020018273ffffffffffffffffffffffffffffffffffffffff168152602001975050505050505050602060405180830381600087803b151561105b57600080fd5b6102c65a03f1151561106c57600080fd5b50505060405180519050503373ffffffffffffffffffffffffffffffffffffffff167f11f4b7a3b533a03660188385e81861fb044615f4dafe593932037df7b7836ecd8786604051808373ffffffffffffffffffffffffffffffffffffffff1673ffffffffffffffffffffffffffffffffffffffff1681526020018273ffffffffffffffffffffffffffffffffffffffff1673ffffffffffffffffffffffffffffffffffffffff1681526020019250505060405180910390a2505050505050565b6000809054906101000a900473ffffffffffffffffffffffffffffffffffffffff1681565b600360009054906101000a900473ffffffffffffffffffffffffffffffffffffffff1681565b601260ff16600a0a81565b600660009054906101000a900473ffffffffffffffffffffffffffffffffffffffff1681565b600080600080600080600460009054906101000a900473ffffffffffffffffffffffffffffffffffffffff169450600560009054906101000a900473ffffffffffffffffffffffffffffffffffffffff1693508373ffffffffffffffffffffffffffffffffffffffff1663654a60ac898b8a6000604051602001526040518463ffffffff167c010000000000000000000000000000000000000000000000000000000002815260040180846000191660001916815260200183815260200182600019166000191681526020019350505050602060405180830381600087803b151561129357600080fd5b6102c65a03f115156112a457600080fd5b5050506040518051905092508473ffffffffffffffffffffffffffffffffffffffff16630f9b49556000604051602001526040518163ffffffff167c0100000000000000000000000000000000000000000000000000000000028152600401602060405180830381600087803b151561131c57600080fd5b6102c65a03f1151561132d57600080fd5b50505060405180519050915061134a601260ff16600a0a83611364565b90506113568382611385565b955050505050509392505050565b60008083831115151561137657600080fd5b82840390508091505092915050565b6000601260ff16600a0a61139984846113ab565b8115156113a257fe5b04905092915050565b60008060008414156113c057600091506113e2565b82840290508284828115156113d157fe5b041415156113de57600080fd5b8091505b50929150505600a165627a7a72305820ac86953eacbf9c26e6facc91afc9d56072d973fa983d412c6a330ffe4bfe13470029",
  "source": "pragma solidity ^0.4.18;\n\nimport \"./ERC20Interface.sol\";\nimport \"./KyberNetworkProxy.sol\";\nimport \"./SynthetixProxy.sol\";\nimport \"./SafeDecimalMath.sol\";\n\ninterface UniswapExchangeInterface {\n    function getEthToTokenInputPrice(uint) external view returns (uint);\n    function getEthToTokenOutputPrice(uint) external view returns (uint);\n    function getTokenToEthInputPrice(uint) external view returns (uint);\n    function getTokenToEthOutputPrice(uint) external view returns (uint);\n    function ethToTokenTransferInput(uint, uint, address) external payable returns (uint);\n    function ethToTokenSwapInput(uint, uint) external payable returns (uint);\n    function ethToTokenTransferOutput(uint, uint, address) external payable returns (uint);\n    function ethToTokenSwapOutput(uint, uint) external payable returns (uint);\n    function tokenToEthTransferInput(uint, uint, uint, address) external returns (uint);\n    function tokenToEthTransferOutput(uint, uint, uint, address) external returns (uint);\n    function addLiquidity(uint, uint,uint) external payable returns(uint);\n}\n\ninterface ISynthetix {\n    function exchange(\n        bytes32 sourceCurrencyKey,\n        uint sourceAmount,\n        bytes32 destinationCurrencyKey,\n        address destinationAddress) external returns (bool);\n}\n\ncontract IFeePool {\n    address public FEE_ADDRESS;\n    uint public exchangeFeeRate;\n    function amountReceivedFromExchange(uint value) external view returns (uint);\n    function amountReceivedFromTransfer(uint value) external view returns (uint);\n    function feePaid(bytes32 currencyKey, uint amount) external;\n    function appendAccountIssuanceRecord(address account, uint lockedAmount, uint debtEntryIndex) external;\n    function setRewardsToDistribute(uint amount) external;\n}\n\ninterface IExchangeRates {\n    function effectiveValue(bytes32 sourceCurrencyKey, uint sourceAmount, bytes32 destinationCurrencyKey) public view returns (uint);\n\n    function rateForCurrency(bytes32 currencyKey) public view returns (uint);\n\n    function anyRateIsStale(bytes32[] currencyKeys) external view returns (bool);\n\n    function rateIsStale(bytes32 currencyKey) external view returns (bool);\n}\n\ncontract AgentFlip {\n    // Variables\n    KyberNetworkProxy public kyberNetworkProxyContract;\n    SynthetixProxy public SynthetixProxyContract;\n\n    // ropsten\n    address public proxySynthetix = 0x013AE307648f529aa72c5767A334DDd37aaB43c3;\n    address public uniswapSethExchange = 0x9196c28E45c02C05D056309e2eEbd48095FaC24E; \n    address public feePoolAddress = 0x0B7e1DC538e1A8Db415Ab1D4c5107325Dd4BD705;\n    address public exchangeRates = 0x22f1ba6dB6ca0A065e1b7EAe6FC22b7E675310EF;\n\n    address public proxySbtc = 0xC1701AbD559FC263829CA3917d03045F95b5224A;\n    address public sethERC20 = 0x0df1b6d92febca3b2793afa3649868991cc4901d;\n\n    // Events\n    event Swap(address indexed sender, ERC20 srcToken, ERC20 destToken);\n\n    uint256 constant UINT256_MAX = ~uint256(0);\n\n    // Functions\n    /**\n     * @dev Contract constructor\n     * @param _kyberNetworkProxyContract KyberNetworkProxy contract address\n     */\n    function AgentFlip(\n        KyberNetworkProxy _kyberNetworkProxyContract\n    ) public {\n        kyberNetworkProxyContract = _kyberNetworkProxyContract;\n    }\n\n    /**\n     * @dev Gets the conversion rate for the destToken given the srcQty.\n     * @param srcToken source token contract address\n     * @param srcQty amount of source tokens\n     * @param destToken destination token contract address\n     */\n    function getConversionRates(\n        ERC20 srcToken,\n        uint srcQty,\n        ERC20 destToken\n    ) public\n      view\n      returns (uint, uint)\n    {\n      return kyberNetworkProxyContract.getExpectedRate(srcToken, destToken, srcQty);\n\n    }\n\n    /**\n     * @dev Swap the user's ERC20 token to another ERC20 token/ETH\n     * @param srcToken source token contract address\n     * @param srcQty amount of source tokens\n     * @param destToken destination token contract address\n     * @param destAddress address to send swapped tokens to\n     * @param maxDestAmount address to send swapped tokens to\n     */\n    function executeSwap(\n        ERC20 srcToken,\n        uint srcQty,\n        ERC20 destToken,\n        address destAddress,\n        uint maxDestAmount\n    ) public {\n        uint minConversionRate;\n\n        // Check that the token transferFrom has succeeded\n        require(srcToken.transferFrom(msg.sender, address(this), srcQty));\n\n        // Mitigate ERC20 Approve front-running attack, by initially setting\n        // allowance to 0\n        require(srcToken.approve(address(kyberNetworkProxyContract), 0));\n\n        // Set the spender's token allowance to tokenQty\n        require(srcToken.approve(address(kyberNetworkProxyContract), srcQty));\n\n        // Get the minimum conversion rate\n        (minConversionRate,) = kyberNetworkProxyContract.getExpectedRate(srcToken, destToken, srcQty);\n\n        // Swap the ERC20 token and send to destAddress\n        kyberNetworkProxyContract.trade(\n            srcToken,\n            srcQty,\n            destToken,\n            destAddress,\n            maxDestAmount,\n            minConversionRate,\n            0 //walletId for fee sharing program\n        );\n\n        // Log the event\n        Swap(msg.sender, srcToken, destToken);\n    }\n\n    bytes32 sEthCurrencyKey = \"sETH\";\n    bytes32 sBtcCurrencyKey = \"sBTC\";\n\n    function swapEthForSbtc(uint deadline) public payable returns(uint receivedAmt) {\n        UniswapExchangeInterface uniContract = UniswapExchangeInterface(uniswapSethExchange);\n        ERC20(sethERC20).approve(uniswapSethExchange, UINT256_MAX);\n\n        ISynthetix synContract = ISynthetix(proxySynthetix);\n\n        uint sEthAmt = uniContract.ethToTokenSwapInput.value(msg.value)(1, deadline);\n        receivedAmt = _sTokenAmtRecvFromExchangeByToken(sEthAmt, sEthCurrencyKey, sBtcCurrencyKey);\n        require (synContract.exchange (sEthCurrencyKey, sEthAmt, sBtcCurrencyKey, address(this)));\n\n        require (ERC20(proxySbtc).transfer(msg.sender, receivedAmt));\n    }\n\n    uint8 public constant decimals = 18;\n    uint public constant UNIT = 10 ** uint(decimals);\n\n    function _sTokenAmtRecvFromExchangeByToken (uint srcAmt, bytes32 srcKey, bytes32 dstKey) internal view returns (uint){\n        IFeePool feePool = IFeePool(feePoolAddress);\n        IExchangeRates synRatesContract = IExchangeRates(exchangeRates);\n        uint dstAmt = synRatesContract.effectiveValue(srcKey, srcAmt, dstKey);\n        uint feeRate = feePool.exchangeFeeRate();\n        uint subbed = sub(UNIT, feeRate);\n        return multiplyDecimal(dstAmt, subbed);\n    }\n\n\n    // Safe Math\n    function sub(uint256 a, uint256 b) internal pure returns (uint256) {\n        require(b <= a);\n        uint256 c = a - b;\n\n        return c;\n    }\n\n    function multiplyDecimal(uint x, uint y)\n        internal\n        pure\n        returns (uint)\n    {\n        /* Divide by UNIT to remove the extra factor introduced by the product. */\n        return mul(x, y) / UNIT;\n    }\n\n    function mul(uint256 a, uint256 b) internal pure returns (uint256) {\n        if (a == 0) {\n            return 0;\n        }\n\n        uint256 c = a * b;\n        require(c / a == b);\n\n        return c;\n    }\n}\n\n",
  "sourcePath": "/Users/michaeljcohen/Desktop/projects/AgentFlip/contracts/AgentFlip.sol",
  "compiler": {
    "name": "solc",
    "version": "0.4.18+commit.9cf6e910.Emscripten.clang"
  },
  "schemaVersion": "3.0.2",
  "updatedAt": "2019-10-24T01:33:15.811Z",
  "devdoc": {
    "methods": {
      "executeSwap(address,uint256,address,address,uint256)": {
        "details": "Swap the user's ERC20 token to another ERC20 token/ETH",
        "params": {
          "destAddress": "address to send swapped tokens to",
          "destToken": "destination token contract address",
          "maxDestAmount": "address to send swapped tokens to",
          "srcQty": "amount of source tokens",
          "srcToken": "source token contract address"
        }
      },
      "getConversionRates(address,uint256,address)": {
        "details": "Gets the conversion rate for the destToken given the srcQty.",
        "params": {
          "destToken": "destination token contract address",
          "srcQty": "amount of source tokens",
          "srcToken": "source token contract address"
        }
      }
    }
  },
  "userdoc": {
    "methods": {}
  }
}